{
  "_format": "hh-sol-artifact-1",
  "contractName": "VotingSystemContract",
  "sourceName": "contracts/VotingSistemContract.sol",
  "abi": [
    {
      "inputs": [
        {
          "internalType": "contract WKND",
          "name": "_token",
          "type": "address"
        },
        {
          "internalType": "string[]",
          "name": "allNames",
          "type": "string[]"
        },
        {
          "internalType": "uint8[]",
          "name": "allAges",
          "type": "uint8[]"
        },
        {
          "internalType": "string[]",
          "name": "allCults",
          "type": "string[]"
        }
      ],
      "stateMutability": "nonpayable",
      "type": "constructor"
    },
    {
      "anonymous": false,
      "inputs": [
        {
          "components": [
            {
              "internalType": "string",
              "name": "name",
              "type": "string"
            },
            {
              "internalType": "uint8",
              "name": "age",
              "type": "uint8"
            },
            {
              "internalType": "string",
              "name": "cult",
              "type": "string"
            },
            {
              "internalType": "uint8",
              "name": "votes",
              "type": "uint8"
            }
          ],
          "indexed": false,
          "internalType": "struct VotingSystem.Candidate",
          "name": "newChallenger",
          "type": "tuple"
        }
      ],
      "name": "NewChallenger",
      "type": "event"
    },
    {
      "inputs": [
        {
          "internalType": "uint256",
          "name": "",
          "type": "uint256"
        }
      ],
      "name": "candidates",
      "outputs": [
        {
          "internalType": "string",
          "name": "name",
          "type": "string"
        },
        {
          "internalType": "uint8",
          "name": "age",
          "type": "uint8"
        },
        {
          "internalType": "string",
          "name": "cult",
          "type": "string"
        },
        {
          "internalType": "uint8",
          "name": "votes",
          "type": "uint8"
        }
      ],
      "stateMutability": "view",
      "type": "function"
    },
    {
      "inputs": [
        {
          "internalType": "address",
          "name": "voterAddress",
          "type": "address"
        },
        {
          "internalType": "uint256",
          "name": "amount",
          "type": "uint256"
        }
      ],
      "name": "checkBalance",
      "outputs": [
        {
          "internalType": "bool",
          "name": "",
          "type": "bool"
        }
      ],
      "stateMutability": "view",
      "type": "function"
    },
    {
      "inputs": [
        {
          "internalType": "bytes",
          "name": "signature",
          "type": "bytes"
        },
        {
          "internalType": "address",
          "name": "voterAddress",
          "type": "address"
        },
        {
          "internalType": "uint256",
          "name": "candidateId",
          "type": "uint256"
        },
        {
          "internalType": "uint8",
          "name": "amount",
          "type": "uint8"
        }
      ],
      "name": "delegatedVote",
      "outputs": [],
      "stateMutability": "nonpayable",
      "type": "function"
    },
    {
      "inputs": [],
      "name": "getCandidates",
      "outputs": [
        {
          "components": [
            {
              "internalType": "string",
              "name": "name",
              "type": "string"
            },
            {
              "internalType": "uint8",
              "name": "age",
              "type": "uint8"
            },
            {
              "internalType": "string",
              "name": "cult",
              "type": "string"
            },
            {
              "internalType": "uint8",
              "name": "votes",
              "type": "uint8"
            }
          ],
          "internalType": "struct VotingSystem.Candidate[]",
          "name": "",
          "type": "tuple[]"
        }
      ],
      "stateMutability": "view",
      "type": "function"
    },
    {
      "inputs": [
        {
          "internalType": "address",
          "name": "voterAddress",
          "type": "address"
        },
        {
          "internalType": "uint256",
          "name": "candidateId",
          "type": "uint256"
        },
        {
          "internalType": "uint256",
          "name": "amount",
          "type": "uint256"
        }
      ],
      "name": "getDigest",
      "outputs": [
        {
          "internalType": "bytes32",
          "name": "",
          "type": "bytes32"
        }
      ],
      "stateMutability": "view",
      "type": "function"
    },
    {
      "inputs": [
        {
          "internalType": "address",
          "name": "voterAddress",
          "type": "address"
        }
      ],
      "name": "getNonce",
      "outputs": [
        {
          "internalType": "uint256",
          "name": "",
          "type": "uint256"
        }
      ],
      "stateMutability": "view",
      "type": "function"
    },
    {
      "inputs": [
        {
          "internalType": "bytes32",
          "name": "digest",
          "type": "bytes32"
        },
        {
          "internalType": "bytes",
          "name": "signature",
          "type": "bytes"
        }
      ],
      "name": "getSigner",
      "outputs": [
        {
          "internalType": "address",
          "name": "",
          "type": "address"
        }
      ],
      "stateMutability": "pure",
      "type": "function"
    },
    {
      "inputs": [
        {
          "internalType": "address",
          "name": "voterAddress",
          "type": "address"
        }
      ],
      "name": "hasVoted",
      "outputs": [
        {
          "internalType": "bool",
          "name": "",
          "type": "bool"
        }
      ],
      "stateMutability": "view",
      "type": "function"
    },
    {
      "inputs": [
        {
          "internalType": "address",
          "name": "voterAddress",
          "type": "address"
        }
      ],
      "name": "isRegistered",
      "outputs": [
        {
          "internalType": "bool",
          "name": "",
          "type": "bool"
        }
      ],
      "stateMutability": "view",
      "type": "function"
    },
    {
      "inputs": [
        {
          "internalType": "uint256",
          "name": "",
          "type": "uint256"
        }
      ],
      "name": "leadingCandidates",
      "outputs": [
        {
          "internalType": "uint256",
          "name": "",
          "type": "uint256"
        }
      ],
      "stateMutability": "view",
      "type": "function"
    },
    {
      "inputs": [],
      "name": "owner",
      "outputs": [
        {
          "internalType": "address",
          "name": "",
          "type": "address"
        }
      ],
      "stateMutability": "view",
      "type": "function"
    },
    {
      "inputs": [
        {
          "internalType": "address",
          "name": "voterAddress",
          "type": "address"
        }
      ],
      "name": "registerVoter",
      "outputs": [],
      "stateMutability": "nonpayable",
      "type": "function"
    },
    {
      "inputs": [],
      "name": "token",
      "outputs": [
        {
          "internalType": "contract WKND",
          "name": "",
          "type": "address"
        }
      ],
      "stateMutability": "view",
      "type": "function"
    },
    {
      "inputs": [
        {
          "internalType": "uint256",
          "name": "candidateId",
          "type": "uint256"
        },
        {
          "internalType": "uint8",
          "name": "voteAmount",
          "type": "uint8"
        },
        {
          "internalType": "address",
          "name": "voterAddress",
          "type": "address"
        }
      ],
      "name": "vote",
      "outputs": [],
      "stateMutability": "nonpayable",
      "type": "function"
    },
    {
      "inputs": [],
      "name": "winningCandidates",
      "outputs": [
        {
          "components": [
            {
              "internalType": "string",
              "name": "name",
              "type": "string"
            },
            {
              "internalType": "uint8",
              "name": "age",
              "type": "uint8"
            },
            {
              "internalType": "string",
              "name": "cult",
              "type": "string"
            },
            {
              "internalType": "uint8",
              "name": "votes",
              "type": "uint8"
            }
          ],
          "internalType": "struct VotingSystem.Candidate[3]",
          "name": "",
          "type": "tuple[3]"
        }
      ],
      "stateMutability": "view",
      "type": "function"
    }
  ],
  "bytecode": "0x6101406040523480156200001257600080fd5b5060405162002ee438038062002ee483398181016040528101906200003891906200070f565b6040518060400160405280600e81526020017f57616b616e646120566f74696e670000000000000000000000000000000000008152506040518060400160405280600581526020017f312e302e3000000000000000000000000000000000000000000000000000000081525060008280519060200120905060008280519060200120905060007f8b73c3c69bb8fe3d512ecc4cf759cc79239f7b179b0ffacaa9a75d522b39400f90508260e081815250508161010081815250504660a081815250506200010d818484620001f760201b60201c565b608081815250503073ffffffffffffffffffffffffffffffffffffffff1660c08173ffffffffffffffffffffffffffffffffffffffff1660601b815250508061012081815250505050505050336000806101000a81548173ffffffffffffffffffffffffffffffffffffffff021916908373ffffffffffffffffffffffffffffffffffffffff16021790555083600160006101000a81548173ffffffffffffffffffffffffffffffffffffffff021916908373ffffffffffffffffffffffffffffffffffffffff160217905550620001ed8383836200023360201b60201c565b5050505062000b74565b60008383834630604051602001620002149594939291906200083b565b6040516020818303038152906040528051906020012090509392505050565b60008054906101000a900473ffffffffffffffffffffffffffffffffffffffff1673ffffffffffffffffffffffffffffffffffffffff163373ffffffffffffffffffffffffffffffffffffffff1614620002c4576040517f08c379a0000000000000000000000000000000000000000000000000000000008152600401620002bb9062000898565b60405180910390fd5b60005b835181101562000485576000604051806080016040528086848151811062000318577f4e487b7100000000000000000000000000000000000000000000000000000000600052603260045260246000fd5b602002602001015181526020018584815181106200035f577f4e487b7100000000000000000000000000000000000000000000000000000000600052603260045260246000fd5b602002602001015160ff168152602001848481518110620003a9577f4e487b7100000000000000000000000000000000000000000000000000000000600052603260045260246000fd5b60200260200101518152602001600060ff168152509050600581908060018154018082558091505060019003906000526020600020906004020160009091909190915060008201518160000190805190602001906200040a9291906200048b565b5060208201518160010160006101000a81548160ff021916908360ff16021790555060408201518160020190805190602001906200044a9291906200048b565b5060608201518160030160006101000a81548160ff021916908360ff16021790555050505080806200047c9062000a65565b915050620002c7565b50505050565b828054620004999062000a2f565b90600052602060002090601f016020900481019282620004bd576000855562000509565b82601f10620004d857805160ff191683800117855562000509565b8280016001018555821562000509579182015b8281111562000508578251825591602001919060010190620004eb565b5b5090506200051891906200051c565b5090565b5b80821115620005375760008160009055506001016200051d565b5090565b6000620005526200054c84620008ee565b620008ba565b9050808382526020820190508260005b858110156200059657815185016200057b8882620006cb565b84526020840193506020830192505060018101905062000562565b5050509392505050565b6000620005b7620005b1846200091d565b620008ba565b90508083825260208201905082856020860282011115620005d757600080fd5b60005b858110156200060b5781620005f08882620006f8565b845260208401935060208301925050600181019050620005da565b5050509392505050565b60006200062c62000626846200094c565b620008ba565b9050828152602081018484840111156200064557600080fd5b62000652848285620009f9565b509392505050565b600082601f8301126200066c57600080fd5b81516200067e8482602086016200053b565b91505092915050565b600082601f8301126200069957600080fd5b8151620006ab848260208601620005a0565b91505092915050565b600081519050620006c58162000b40565b92915050565b600082601f830112620006dd57600080fd5b8151620006ef84826020860162000615565b91505092915050565b600081519050620007098162000b5a565b92915050565b600080600080608085870312156200072657600080fd5b60006200073687828801620006b4565b945050602085015167ffffffffffffffff8111156200075457600080fd5b62000762878288016200065a565b935050604085015167ffffffffffffffff8111156200078057600080fd5b6200078e8782880162000687565b925050606085015167ffffffffffffffff811115620007ac57600080fd5b620007ba878288016200065a565b91505092959194509250565b620007d18162000990565b82525050565b620007e281620009a4565b82525050565b6000620007f7601d836200097f565b91507f4f6e6c79206f776e65722063616e206164642063616e646964617465730000006000830152602082019050919050565b6200083581620009e2565b82525050565b600060a082019050620008526000830188620007d7565b620008616020830187620007d7565b620008706040830186620007d7565b6200087f60608301856200082a565b6200088e6080830184620007c6565b9695505050505050565b60006020820190508181036000830152620008b381620007e8565b9050919050565b6000604051905081810181811067ffffffffffffffff82111715620008e457620008e362000b11565b5b8060405250919050565b600067ffffffffffffffff8211156200090c576200090b62000b11565b5b602082029050602081019050919050565b600067ffffffffffffffff8211156200093b576200093a62000b11565b5b602082029050602081019050919050565b600067ffffffffffffffff8211156200096a576200096962000b11565b5b601f19601f8301169050602081019050919050565b600082825260208201905092915050565b60006200099d82620009c2565b9050919050565b6000819050919050565b6000620009bb8262000990565b9050919050565b600073ffffffffffffffffffffffffffffffffffffffff82169050919050565b6000819050919050565b600060ff82169050919050565b60005b8381101562000a19578082015181840152602081019050620009fc565b8381111562000a29576000848401525b50505050565b6000600282049050600182168062000a4857607f821691505b6020821081141562000a5f5762000a5e62000ae2565b5b50919050565b600062000a7282620009e2565b91507fffffffffffffffffffffffffffffffffffffffffffffffffffffffffffffffff82141562000aa85762000aa762000ab3565b5b600182019050919050565b7f4e487b7100000000000000000000000000000000000000000000000000000000600052601160045260246000fd5b7f4e487b7100000000000000000000000000000000000000000000000000000000600052602260045260246000fd5b7f4e487b7100000000000000000000000000000000000000000000000000000000600052604160045260246000fd5b62000b4b81620009ae565b811462000b5757600080fd5b50565b62000b6581620009ec565b811462000b7157600080fd5b50565b60805160a05160c05160601c60e051610100516101205161231d62000bc76000396000610f6501526000610fa701526000610f8601526000610ebb01526000610f1101526000610f3a015261231d6000f3fe608060405234801561001057600080fd5b50600436106100f55760003560e01c80634d7b9bd511610097578063c3c5a54711610066578063c3c5a5471461029b578063ca4ab70e146102cb578063f7b2ec0d146102fb578063fc0c546a1461032b576100f5565b80634d7b9bd51461020157806386ba2433146102315780638da5cb5b1461024d578063b8d06bc41461026b576100f5565b80632d0335ab116100d35780632d0335ab146101645780633477ee2e14610194578063377968d4146101c757806338db6dd3146101e5576100f5565b806306a49fce146100fa57806309eef43e1461011857806319cff70614610148575b600080fd5b610102610349565b60405161010f9190611d62565b60405180910390f35b610132600480360381019061012d919061168c565b610506565b60405161013f9190611d84565b60405180910390f35b610162600480360381019061015d919061186a565b61055c565b005b61017e6004803603810190610179919061168c565b6106ac565b60405161018b9190611fc0565b60405180910390f35b6101ae60048036038101906101a99190611818565b6106f5565b6040516101be9493929190611ecd565b60405180910390f35b6101cf61085f565b6040516101dc9190611d40565b60405180910390f35b6101ff60048036038101906101fa919061168c565b610ad0565b005b61021b600480360381019061021691906116b5565b610c01565b6040516102289190611d84565b60405180910390f35b61024b60048036038101906102469190611798565b610cc4565b005b610255610cf9565b6040516102629190611d25565b60405180910390f35b610285600480360381019061028091906116f1565b610d1d565b6040516102929190611d9f565b60405180910390f35b6102b560048036038101906102b0919061168c565b610d7d565b6040516102c29190611d84565b60405180910390f35b6102e560048036038101906102e09190611818565b610dd3565b6040516102f29190611fc0565b60405180910390f35b61031560048036038101906103109190611740565b610df7565b6040516103229190611d25565b60405180910390f35b610333610e50565b6040516103409190611e97565b60405180910390f35b60606005805480602002602001604051908101604052809291908181526020016000905b828210156104fd57838290600052602060002090600402016040518060800160405290816000820180546103a090612197565b80601f01602080910402602001604051908101604052809291908181526020018280546103cc90612197565b80156104195780601f106103ee57610100808354040283529160200191610419565b820191906000526020600020905b8154815290600101906020018083116103fc57829003601f168201915b505050505081526020016001820160009054906101000a900460ff1660ff1660ff16815260200160028201805461044f90612197565b80601f016020809104026020016040519081016040528092919081815260200182805461047b90612197565b80156104c85780601f1061049d576101008083540402835291602001916104c8565b820191906000526020600020905b8154815290600101906020018083116104ab57829003601f168201915b505050505081526020016003820160009054906101000a900460ff1660ff1660ff16815250508152602001906001019061036d565b50505050905090565b6000600360008373ffffffffffffffffffffffffffffffffffffffff1673ffffffffffffffffffffffffffffffffffffffff16815260200190815260200160002060009054906101000a900460ff169050919050565b600160058481548110610598577f4e487b7100000000000000000000000000000000000000000000000000000000600052603260045260246000fd5b906000526020600020906004020160030160006101000a81548160ff021916908360ff1602179055506001600360008373ffffffffffffffffffffffffffffffffffffffff1673ffffffffffffffffffffffffffffffffffffffff16815260200190815260200160002060006101000a81548160ff021916908315150217905550600160009054906101000a900473ffffffffffffffffffffffffffffffffffffffff1673ffffffffffffffffffffffffffffffffffffffff166342966c6860016040518263ffffffff1660e01b81526004016106759190611eb2565b600060405180830381600087803b15801561068f57600080fd5b505af11580156106a3573d6000803e3d6000fd5b50505050505050565b6000600460008373ffffffffffffffffffffffffffffffffffffffff1673ffffffffffffffffffffffffffffffffffffffff168152602001908152602001600020549050919050565b6005818154811061070557600080fd5b906000526020600020906004020160009150905080600001805461072890612197565b80601f016020809104026020016040519081016040528092919081815260200182805461075490612197565b80156107a15780601f10610776576101008083540402835291602001916107a1565b820191906000526020600020905b81548152906001019060200180831161078457829003601f168201915b5050505050908060010160009054906101000a900460ff16908060020180546107c990612197565b80601f01602080910402602001604051908101604052809291908181526020018280546107f590612197565b80156108425780601f1061081757610100808354040283529160200191610842565b820191906000526020600020905b81548152906001019060200180831161082557829003601f168201915b5050505050908060030160009054906101000a900460ff16905084565b61086761157e565b61086f61157e565b60005b600680549050811015610ac8576005600682815481106108bb577f4e487b7100000000000000000000000000000000000000000000000000000000600052603260045260246000fd5b9060005260206000200154815481106108fd577f4e487b7100000000000000000000000000000000000000000000000000000000600052603260045260246000fd5b906000526020600020906004020160405180608001604052908160008201805461092690612197565b80601f016020809104026020016040519081016040528092919081815260200182805461095290612197565b801561099f5780601f106109745761010080835404028352916020019161099f565b820191906000526020600020905b81548152906001019060200180831161098257829003601f168201915b505050505081526020016001820160009054906101000a900460ff1660ff1660ff1681526020016002820180546109d590612197565b80601f0160208091040260200160405190810160405280929190818152602001828054610a0190612197565b8015610a4e5780601f10610a2357610100808354040283529160200191610a4e565b820191906000526020600020905b815481529060010190602001808311610a3157829003601f168201915b505050505081526020016003820160009054906101000a900460ff1660ff1660ff1681525050828260038110610aad577f4e487b7100000000000000000000000000000000000000000000000000000000600052603260045260246000fd5b60200201819052508080610ac0906121c9565b915050610872565b508091505090565b610ad981610d7d565b15610b19576040517f08c379a0000000000000000000000000000000000000000000000000000000008152600401610b1090611f80565b60405180910390fd5b6001600260008373ffffffffffffffffffffffffffffffffffffffff1673ffffffffffffffffffffffffffffffffffffffff16815260200190815260200160002060006101000a81548160ff021916908315150217905550600160009054906101000a900473ffffffffffffffffffffffffffffffffffffffff1673ffffffffffffffffffffffffffffffffffffffff16636a627842826040518263ffffffff1660e01b8152600401610bcc9190611d25565b600060405180830381600087803b158015610be657600080fd5b505af1158015610bfa573d6000803e3d6000fd5b5050505050565b60008082118015610cbc575081600160009054906101000a900473ffffffffffffffffffffffffffffffffffffffff1673ffffffffffffffffffffffffffffffffffffffff166370a08231856040518263ffffffff1660e01b8152600401610c699190611d25565b60206040518083038186803b158015610c8157600080fd5b505afa158015610c95573d6000803e3d6000fd5b505050506040513d601f19601f82011682018060405250810190610cb99190611841565b10155b905092915050565b6000610cd484848460ff16610d1d565b90506000610ce3828888610df7565b9050610cf084848761055c565b50505050505050565b60008054906101000a900473ffffffffffffffffffffffffffffffffffffffff1681565b6000610d747fec91ff3ab64b253f668a0be1dea2d593a5dd1140d756c9789f716a8bb4cd0dcf858585604051602001610d599493929190611dba565b60405160208183030381529060405280519060200120610e76565b90509392505050565b6000600260008373ffffffffffffffffffffffffffffffffffffffff1673ffffffffffffffffffffffffffffffffffffffff16815260200190815260200160002060009054906101000a900460ff169050919050565b60068181548110610de357600080fd5b906000526020600020016000915090505481565b6000610e478484848080601f016020809104026020016040519081016040528093929190818152602001838380828437600081840152601f19601f82011690508083019250505050505050610e90565b90509392505050565b600160009054906101000a900473ffffffffffffffffffffffffffffffffffffffff1681565b6000610e89610e83610eb7565b83610fd1565b9050919050565b6000806000610e9f8585611004565b91509150610eac81611087565b819250505092915050565b60007f000000000000000000000000000000000000000000000000000000000000000073ffffffffffffffffffffffffffffffffffffffff163073ffffffffffffffffffffffffffffffffffffffff16148015610f3357507f000000000000000000000000000000000000000000000000000000000000000046145b15610f60577f00000000000000000000000000000000000000000000000000000000000000009050610fce565b610fcb7f00000000000000000000000000000000000000000000000000000000000000007f00000000000000000000000000000000000000000000000000000000000000007f00000000000000000000000000000000000000000000000000000000000000006113d8565b90505b90565b60008282604051602001610fe6929190611cee565b60405160208183030381529060405280519060200120905092915050565b6000806041835114156110465760008060006020860151925060408601519150606086015160001a905061103a87828585611412565b94509450505050611080565b60408351141561107757600080602085015191506040850151905061106c86838361151f565b935093505050611080565b60006002915091505b9250929050565b600060048111156110c1577f4e487b7100000000000000000000000000000000000000000000000000000000600052602160045260246000fd5b8160048111156110fa577f4e487b7100000000000000000000000000000000000000000000000000000000600052602160045260246000fd5b1415611105576113d5565b6001600481111561113f577f4e487b7100000000000000000000000000000000000000000000000000000000600052602160045260246000fd5b816004811115611178577f4e487b7100000000000000000000000000000000000000000000000000000000600052602160045260246000fd5b14156111b9576040517f08c379a00000000000000000000000000000000000000000000000000000000081526004016111b090611f20565b60405180910390fd5b600260048111156111f3577f4e487b7100000000000000000000000000000000000000000000000000000000600052602160045260246000fd5b81600481111561122c577f4e487b7100000000000000000000000000000000000000000000000000000000600052602160045260246000fd5b141561126d576040517f08c379a000000000000000000000000000000000000000000000000000000000815260040161126490611f40565b60405180910390fd5b600360048111156112a7577f4e487b7100000000000000000000000000000000000000000000000000000000600052602160045260246000fd5b8160048111156112e0577f4e487b7100000000000000000000000000000000000000000000000000000000600052602160045260246000fd5b1415611321576040517f08c379a000000000000000000000000000000000000000000000000000000000815260040161131890611f60565b60405180910390fd5b60048081111561135a577f4e487b7100000000000000000000000000000000000000000000000000000000600052602160045260246000fd5b816004811115611393577f4e487b7100000000000000000000000000000000000000000000000000000000600052602160045260246000fd5b14156113d4576040517f08c379a00000000000000000000000000000000000000000000000000000000081526004016113cb90611fa0565b60405180910390fd5b5b50565b600083838346306040516020016113f3959493929190611dff565b6040516020818303038152906040528051906020012090509392505050565b6000807f7fffffffffffffffffffffffffffffff5d576e7357a4501ddfe92f46681b20a08360001c111561144d576000600391509150611516565b601b8560ff16141580156114655750601c8560ff1614155b15611477576000600491509150611516565b60006001878787876040516000815260200160405260405161149c9493929190611e52565b6020604051602081039080840390855afa1580156114be573d6000803e3d6000fd5b505050602060405103519050600073ffffffffffffffffffffffffffffffffffffffff168173ffffffffffffffffffffffffffffffffffffffff16141561150d57600060019250925050611516565b80600092509250505b94509492505050565b60008060007f7fffffffffffffffffffffffffffffffffffffffffffffffffffffffffffffff60001b841690506000601b60ff8660001c901c6115629190612079565b905061157087828885611412565b935093505050935093915050565b60405180606001604052806003905b6115956115ab565b81526020019060019003908161158d5790505090565b604051806080016040528060608152602001600060ff16815260200160608152602001600060ff1681525090565b6000813590506115e88161228b565b92915050565b6000813590506115fd816122a2565b92915050565b60008083601f84011261161557600080fd5b8235905067ffffffffffffffff81111561162e57600080fd5b60208301915083600182028301111561164657600080fd5b9250929050565b60008135905061165c816122b9565b92915050565b600081519050611671816122b9565b92915050565b600081359050611686816122d0565b92915050565b60006020828403121561169e57600080fd5b60006116ac848285016115d9565b91505092915050565b600080604083850312156116c857600080fd5b60006116d6858286016115d9565b92505060206116e78582860161164d565b9150509250929050565b60008060006060848603121561170657600080fd5b6000611714868287016115d9565b93505060206117258682870161164d565b92505060406117368682870161164d565b9150509250925092565b60008060006040848603121561175557600080fd5b6000611763868287016115ee565b935050602084013567ffffffffffffffff81111561178057600080fd5b61178c86828701611603565b92509250509250925092565b6000806000806000608086880312156117b057600080fd5b600086013567ffffffffffffffff8111156117ca57600080fd5b6117d688828901611603565b955095505060206117e9888289016115d9565b93505060406117fa8882890161164d565b925050606061180b88828901611677565b9150509295509295909350565b60006020828403121561182a57600080fd5b60006118388482850161164d565b91505092915050565b60006020828403121561185357600080fd5b600061186184828501611662565b91505092915050565b60008060006060848603121561187f57600080fd5b600061188d8682870161164d565b935050602061189e86828701611677565b92505060406118af868287016115d9565b9150509250925092565b60006118c58383611c57565b905092915050565b6118d6816120cf565b82525050565b60006118e782611ff5565b6118f18185612030565b93508360208202850161190385611fdb565b8060005b8581101561193f578484038952815161192085826118b9565b945061192b83612016565b925060208a01995050600181019050611907565b50829750879550505050505092915050565b600061195c82612000565b611966818561203b565b93508360208202850161197885611fe5565b8060005b858110156119b4578484038952815161199585826118b9565b94506119a083612023565b925060208a0199505060018101905061197c565b50829750879550505050505092915050565b6119cf816120e1565b82525050565b6119de816120ed565b82525050565b6119f56119f0826120ed565b612212565b82525050565b611a048161212e565b82525050565b611a1381612152565b82525050565b6000611a248261200b565b611a2e818561204c565b9350611a3e818560208601612164565b611a478161227a565b840191505092915050565b6000611a5d8261200b565b611a67818561205d565b9350611a77818560208601612164565b611a808161227a565b840191505092915050565b6000611a9860188361205d565b91507f45434453413a20696e76616c6964207369676e617475726500000000000000006000830152602082019050919050565b6000611ad8601f8361205d565b91507f45434453413a20696e76616c6964207369676e6174757265206c656e677468006000830152602082019050919050565b6000611b1860028361206e565b91507f19010000000000000000000000000000000000000000000000000000000000006000830152600282019050919050565b6000611b5860228361205d565b91507f45434453413a20696e76616c6964207369676e6174757265202773272076616c60008301527f75650000000000000000000000000000000000000000000000000000000000006020830152604082019050919050565b6000611bbe60188361205d565b91507f566f74657220616c7265616479207265676973746572656400000000000000006000830152602082019050919050565b6000611bfe60228361205d565b91507f45434453413a20696e76616c6964207369676e6174757265202776272076616c60008301527f75650000000000000000000000000000000000000000000000000000000000006020830152604082019050919050565b60006080830160008301518482036000860152611c748282611a19565b9150506020830151611c896020860182611cd0565b5060408301518482036040860152611ca18282611a19565b9150506060830151611cb66060860182611cd0565b508091505092915050565b611cca81612117565b82525050565b611cd981612121565b82525050565b611ce881612121565b82525050565b6000611cf982611b0b565b9150611d0582856119e4565b602082019150611d1582846119e4565b6020820191508190509392505050565b6000602082019050611d3a60008301846118cd565b92915050565b60006020820190508181036000830152611d5a81846118dc565b905092915050565b60006020820190508181036000830152611d7c8184611951565b905092915050565b6000602082019050611d9960008301846119c6565b92915050565b6000602082019050611db460008301846119d5565b92915050565b6000608082019050611dcf60008301876119d5565b611ddc60208301866118cd565b611de96040830185611cc1565b611df66060830184611cc1565b95945050505050565b600060a082019050611e1460008301886119d5565b611e2160208301876119d5565b611e2e60408301866119d5565b611e3b6060830185611cc1565b611e4860808301846118cd565b9695505050505050565b6000608082019050611e6760008301876119d5565b611e746020830186611cdf565b611e8160408301856119d5565b611e8e60608301846119d5565b95945050505050565b6000602082019050611eac60008301846119fb565b92915050565b6000602082019050611ec76000830184611a0a565b92915050565b60006080820190508181036000830152611ee78187611a52565b9050611ef66020830186611cdf565b8181036040830152611f088185611a52565b9050611f176060830184611cdf565b95945050505050565b60006020820190508181036000830152611f3981611a8b565b9050919050565b60006020820190508181036000830152611f5981611acb565b9050919050565b60006020820190508181036000830152611f7981611b4b565b9050919050565b60006020820190508181036000830152611f9981611bb1565b9050919050565b60006020820190508181036000830152611fb981611bf1565b9050919050565b6000602082019050611fd56000830184611cc1565b92915050565b6000819050919050565b6000819050602082019050919050565b600060039050919050565b600081519050919050565b600081519050919050565b6000602082019050919050565b6000602082019050919050565b600081905092915050565b600082825260208201905092915050565b600082825260208201905092915050565b600082825260208201905092915050565b600081905092915050565b600061208482612117565b915061208f83612117565b9250827fffffffffffffffffffffffffffffffffffffffffffffffffffffffffffffffff038211156120c4576120c361221c565b5b828201905092915050565b60006120da826120f7565b9050919050565b60008115159050919050565b6000819050919050565b600073ffffffffffffffffffffffffffffffffffffffff82169050919050565b6000819050919050565b600060ff82169050919050565b600061213982612140565b9050919050565b600061214b826120f7565b9050919050565b600061215d82612117565b9050919050565b60005b83811015612182578082015181840152602081019050612167565b83811115612191576000848401525b50505050565b600060028204905060018216806121af57607f821691505b602082108114156121c3576121c261224b565b5b50919050565b60006121d482612117565b91507fffffffffffffffffffffffffffffffffffffffffffffffffffffffffffffffff8214156122075761220661221c565b5b600182019050919050565b6000819050919050565b7f4e487b7100000000000000000000000000000000000000000000000000000000600052601160045260246000fd5b7f4e487b7100000000000000000000000000000000000000000000000000000000600052602260045260246000fd5b6000601f19601f8301169050919050565b612294816120cf565b811461229f57600080fd5b50565b6122ab816120ed565b81146122b657600080fd5b50565b6122c281612117565b81146122cd57600080fd5b50565b6122d981612121565b81146122e457600080fd5b5056fea26469706673582212201b5550fbefadb75461a6dbefd894191fb8f7788776ad291a94e1671f78fdeb2964736f6c63430008000033",
  "linkReferences": {},
  "deployedLinkReferences": {}
}