{
  "_format": "hh-sol-artifact-1",
  "contractName": "VotingSystemContract",
  "sourceName": "contracts/VotingSistemContract.sol",
  "abi": [
    {
      "inputs": [
        {
          "internalType": "contract WKND",
          "name": "_token",
          "type": "address"
        },
        {
          "internalType": "string[]",
          "name": "_candidateNames",
          "type": "string[]"
        },
        {
          "internalType": "uint8[]",
          "name": "_candidateAges",
          "type": "uint8[]"
        },
        {
          "internalType": "string[]",
          "name": "_candidateCults",
          "type": "string[]"
        }
      ],
      "stateMutability": "nonpayable",
      "type": "constructor"
    },
    {
      "anonymous": false,
      "inputs": [
        {
          "components": [
            {
              "internalType": "string",
              "name": "name",
              "type": "string"
            },
            {
              "internalType": "uint8",
              "name": "age",
              "type": "uint8"
            },
            {
              "internalType": "string",
              "name": "cult",
              "type": "string"
            },
            {
              "internalType": "uint8",
              "name": "votes",
              "type": "uint8"
            }
          ],
          "indexed": false,
          "internalType": "struct VotingSystemContract.Candidate",
          "name": "challenger",
          "type": "tuple"
        }
      ],
      "name": "NewChallenger",
      "type": "event"
    },
    {
      "inputs": [
        {
          "internalType": "string[]",
          "name": "_candidateNames",
          "type": "string[]"
        },
        {
          "internalType": "uint8[]",
          "name": "_candidateAges",
          "type": "uint8[]"
        },
        {
          "internalType": "string[]",
          "name": "_candidateCults",
          "type": "string[]"
        }
      ],
      "name": "addCandidates",
      "outputs": [],
      "stateMutability": "nonpayable",
      "type": "function"
    },
    {
      "inputs": [
        {
          "internalType": "uint256",
          "name": "",
          "type": "uint256"
        }
      ],
      "name": "candidates",
      "outputs": [
        {
          "internalType": "string",
          "name": "name",
          "type": "string"
        },
        {
          "internalType": "uint8",
          "name": "age",
          "type": "uint8"
        },
        {
          "internalType": "string",
          "name": "cult",
          "type": "string"
        },
        {
          "internalType": "uint8",
          "name": "votes",
          "type": "uint8"
        }
      ],
      "stateMutability": "view",
      "type": "function"
    },
    {
      "inputs": [],
      "name": "getCandidates",
      "outputs": [
        {
          "components": [
            {
              "internalType": "string",
              "name": "name",
              "type": "string"
            },
            {
              "internalType": "uint8",
              "name": "age",
              "type": "uint8"
            },
            {
              "internalType": "string",
              "name": "cult",
              "type": "string"
            },
            {
              "internalType": "uint8",
              "name": "votes",
              "type": "uint8"
            }
          ],
          "internalType": "struct VotingSystemContract.Candidate[]",
          "name": "",
          "type": "tuple[]"
        }
      ],
      "stateMutability": "view",
      "type": "function"
    },
    {
      "inputs": [],
      "name": "getLeadingCandidates",
      "outputs": [
        {
          "components": [
            {
              "internalType": "string",
              "name": "name",
              "type": "string"
            },
            {
              "internalType": "uint8",
              "name": "age",
              "type": "uint8"
            },
            {
              "internalType": "string",
              "name": "cult",
              "type": "string"
            },
            {
              "internalType": "uint8",
              "name": "votes",
              "type": "uint8"
            }
          ],
          "internalType": "struct VotingSystemContract.Candidate[]",
          "name": "",
          "type": "tuple[]"
        }
      ],
      "stateMutability": "view",
      "type": "function"
    },
    {
      "inputs": [
        {
          "internalType": "address",
          "name": "voterAddress",
          "type": "address"
        }
      ],
      "name": "hasVoted",
      "outputs": [
        {
          "internalType": "bool",
          "name": "",
          "type": "bool"
        }
      ],
      "stateMutability": "view",
      "type": "function"
    },
    {
      "inputs": [
        {
          "internalType": "address",
          "name": "voterAddress",
          "type": "address"
        }
      ],
      "name": "isRegistered",
      "outputs": [
        {
          "internalType": "bool",
          "name": "",
          "type": "bool"
        }
      ],
      "stateMutability": "view",
      "type": "function"
    },
    {
      "inputs": [
        {
          "internalType": "uint256",
          "name": "",
          "type": "uint256"
        }
      ],
      "name": "leadingCandidates",
      "outputs": [
        {
          "internalType": "string",
          "name": "name",
          "type": "string"
        },
        {
          "internalType": "uint8",
          "name": "age",
          "type": "uint8"
        },
        {
          "internalType": "string",
          "name": "cult",
          "type": "string"
        },
        {
          "internalType": "uint8",
          "name": "votes",
          "type": "uint8"
        }
      ],
      "stateMutability": "view",
      "type": "function"
    },
    {
      "inputs": [],
      "name": "owner",
      "outputs": [
        {
          "internalType": "address",
          "name": "",
          "type": "address"
        }
      ],
      "stateMutability": "view",
      "type": "function"
    },
    {
      "inputs": [
        {
          "internalType": "address",
          "name": "voterAddress",
          "type": "address"
        }
      ],
      "name": "registerVoter",
      "outputs": [],
      "stateMutability": "nonpayable",
      "type": "function"
    },
    {
      "inputs": [],
      "name": "token",
      "outputs": [
        {
          "internalType": "contract WKND",
          "name": "",
          "type": "address"
        }
      ],
      "stateMutability": "view",
      "type": "function"
    },
    {
      "inputs": [
        {
          "internalType": "uint8",
          "name": "_candidateId",
          "type": "uint8"
        },
        {
          "internalType": "uint8",
          "name": "_amount",
          "type": "uint8"
        },
        {
          "internalType": "address",
          "name": "_address",
          "type": "address"
        }
      ],
      "name": "vote",
      "outputs": [],
      "stateMutability": "payable",
      "type": "function"
    },
    {
      "inputs": [
        {
          "internalType": "uint256",
          "name": "",
          "type": "uint256"
        }
      ],
      "name": "voters",
      "outputs": [
        {
          "internalType": "bool",
          "name": "voted",
          "type": "bool"
        },
        {
          "internalType": "address",
          "name": "voterAddress",
          "type": "address"
        },
        {
          "internalType": "uint256",
          "name": "candidateId",
          "type": "uint256"
        }
      ],
      "stateMutability": "view",
      "type": "function"
    },
    {
      "inputs": [],
      "name": "winningCandidates",
      "outputs": [
        {
          "components": [
            {
              "internalType": "string",
              "name": "name",
              "type": "string"
            },
            {
              "internalType": "uint8",
              "name": "age",
              "type": "uint8"
            },
            {
              "internalType": "string",
              "name": "cult",
              "type": "string"
            },
            {
              "internalType": "uint8",
              "name": "votes",
              "type": "uint8"
            }
          ],
          "internalType": "struct VotingSystemContract.Candidate[3]",
          "name": "",
          "type": "tuple[3]"
        }
      ],
      "stateMutability": "view",
      "type": "function"
    }
  ],
  "bytecode": "0x6101406040523480156200001257600080fd5b506040516200306c3803806200306c8339818101604052810190620000389190620006a1565b6040518060400160405280600e81526020017f57616b616e646120566f74696e670000000000000000000000000000000000008152506040518060400160405280600581526020017f312e302e3000000000000000000000000000000000000000000000000000000081525060008280519060200120905060008280519060200120905060007f8b73c3c69bb8fe3d512ecc4cf759cc79239f7b179b0ffacaa9a75d522b39400f90508260e081815250508161010081815250504660a081815250506200010d818484620001f760201b60201c565b608081815250503073ffffffffffffffffffffffffffffffffffffffff1660c08173ffffffffffffffffffffffffffffffffffffffff1660601b815250508061012081815250505050505050336000806101000a81548173ffffffffffffffffffffffffffffffffffffffff021916908373ffffffffffffffffffffffffffffffffffffffff16021790555083600160006101000a81548173ffffffffffffffffffffffffffffffffffffffff021916908373ffffffffffffffffffffffffffffffffffffffff160217905550620001ed8383836200023360201b60201c565b5050505062000ad0565b60008383834630604051602001620002149594939291906200078b565b6040516020818303038152906040528051906020012090509392505050565b60005b8351811015620003ec576005604051806080016040528086848151811062000287577f4e487b7100000000000000000000000000000000000000000000000000000000600052603260045260246000fd5b60200260200101518152602001858481518110620002ce577f4e487b7100000000000000000000000000000000000000000000000000000000600052603260045260246000fd5b602002602001015160ff16815260200184848151811062000318577f4e487b7100000000000000000000000000000000000000000000000000000000600052603260045260246000fd5b60200260200101518152602001600060ff168152509080600181540180825580915050600190039060005260206000209060040201600090919091909150600082015181600001908051906020019062000374929190620003f2565b5060208201518160010160006101000a81548160ff021916908360ff1602179055506040820151816002019080519060200190620003b4929190620003f2565b5060608201518160030160006101000a81548160ff021916908360ff160217905550505080620003e490620009b0565b905062000236565b50505050565b828054620004009062000944565b90600052602060002090601f01602090048101928262000424576000855562000470565b82601f106200043f57805160ff191683800117855562000470565b8280016001018555821562000470579182015b828111156200046f57825182559160200191906001019062000452565b5b5090506200047f919062000483565b5090565b5b808211156200049e57600081600090555060010162000484565b5090565b6000620004b9620004b38462000811565b620007e8565b90508083825260208201905082856020860282011115620004d957600080fd5b60005b858110156200052857815167ffffffffffffffff811115620004fd57600080fd5b8086016200050c89826200065d565b85526020850194506020840193505050600181019050620004dc565b5050509392505050565b600062000549620005438462000840565b620007e8565b905080838252602082019050828560208602820111156200056957600080fd5b60005b858110156200059d57816200058288826200068a565b8452602084019350602083019250506001810190506200056c565b5050509392505050565b6000620005be620005b8846200086f565b620007e8565b905082815260208101848484011115620005d757600080fd5b620005e48482856200090e565b509392505050565b600082601f830112620005fe57600080fd5b815162000610848260208601620004a2565b91505092915050565b600082601f8301126200062b57600080fd5b81516200063d84826020860162000532565b91505092915050565b600081519050620006578162000a9c565b92915050565b600082601f8301126200066f57600080fd5b815162000681848260208601620005a7565b91505092915050565b6000815190506200069b8162000ab6565b92915050565b60008060008060808587031215620006b857600080fd5b6000620006c88782880162000646565b945050602085015167ffffffffffffffff811115620006e657600080fd5b620006f487828801620005ec565b935050604085015167ffffffffffffffff8111156200071257600080fd5b620007208782880162000619565b925050606085015167ffffffffffffffff8111156200073e57600080fd5b6200074c87828801620005ec565b91505092959194509250565b6200076381620008a5565b82525050565b6200077481620008b9565b82525050565b6200078581620008f7565b82525050565b600060a082019050620007a2600083018862000769565b620007b1602083018762000769565b620007c0604083018662000769565b620007cf60608301856200077a565b620007de608083018462000758565b9695505050505050565b6000620007f462000807565b90506200080282826200097a565b919050565b6000604051905090565b600067ffffffffffffffff8211156200082f576200082e62000a5c565b5b602082029050602081019050919050565b600067ffffffffffffffff8211156200085e576200085d62000a5c565b5b602082029050602081019050919050565b600067ffffffffffffffff8211156200088d576200088c62000a5c565b5b620008988262000a8b565b9050602081019050919050565b6000620008b282620008d7565b9050919050565b6000819050919050565b6000620008d082620008a5565b9050919050565b600073ffffffffffffffffffffffffffffffffffffffff82169050919050565b6000819050919050565b600060ff82169050919050565b60005b838110156200092e57808201518184015260208101905062000911565b838111156200093e576000848401525b50505050565b600060028204905060018216806200095d57607f821691505b6020821081141562000974576200097362000a2d565b5b50919050565b620009858262000a8b565b810181811067ffffffffffffffff82111715620009a757620009a662000a5c565b5b80604052505050565b6000620009bd82620008f7565b91507fffffffffffffffffffffffffffffffffffffffffffffffffffffffffffffffff821415620009f357620009f2620009fe565b5b600182019050919050565b7f4e487b7100000000000000000000000000000000000000000000000000000000600052601160045260246000fd5b7f4e487b7100000000000000000000000000000000000000000000000000000000600052602260045260246000fd5b7f4e487b7100000000000000000000000000000000000000000000000000000000600052604160045260246000fd5b6000601f19601f8301169050919050565b62000aa781620008c3565b811462000ab357600080fd5b50565b62000ac18162000901565b811462000acd57600080fd5b50565b60805160a05160c05160601c60e051610100516101205161255b62000b1160003960005050600050506000505060005050600050506000505061255b6000f3fe6080604052600436106100c25760003560e01c806338db6dd31161007f578063ca4ab70e11610059578063ca4ab70e1461027f578063da58c7d9146102bf578063fc0c546a146102fe578063ff036a1f14610329576100c2565b806338db6dd3146101ee5780638da5cb5b14610217578063c3c5a54714610242576100c2565b806306a49fce146100c757806309eef43e146100f2578063170fb5121461012f5780631f2bdb4f1461015a5780633477ee2e14610183578063377968d4146101c3575b600080fd5b3480156100d357600080fd5b506100dc610345565b6040516100e99190612026565b60405180910390f35b3480156100fe57600080fd5b5061011960048036038101906101149190611c22565b610502565b6040516101269190612048565b60405180910390f35b34801561013b57600080fd5b50610144610558565b6040516101519190612026565b60405180910390f35b34801561016657600080fd5b50610181600480360381019061017c9190611c4b565b610715565b005b34801561018f57600080fd5b506101aa60048036038101906101a59190611ce2565b6108c9565b6040516101ba94939291906120b5565b60405180910390f35b3480156101cf57600080fd5b506101d8610a33565b6040516101e59190612004565b60405180910390f35b3480156101fa57600080fd5b5061021560048036038101906102109190611c22565b610c5c565b005b34801561022357600080fd5b5061022c610d8d565b6040516102399190611fc0565b60405180910390f35b34801561024e57600080fd5b5061026960048036038101906102649190611c22565b610db1565b6040516102769190612048565b60405180910390f35b34801561028b57600080fd5b506102a660048036038101906102a19190611ce2565b610e07565b6040516102b694939291906120b5565b60405180910390f35b3480156102cb57600080fd5b506102e660048036038101906102e19190611ce2565b610f71565b6040516102f593929190612063565b60405180910390f35b34801561030a57600080fd5b50610313610fd8565b604051610320919061209a565b60405180910390f35b610343600480360381019061033e9190611d0b565b610ffe565b005b60606005805480602002602001604051908101604052809291908181526020016000905b828210156104f9578382906000526020600020906004020160405180608001604052908160008201805461039c9061236d565b80601f01602080910402602001604051908101604052809291908181526020018280546103c89061236d565b80156104155780601f106103ea57610100808354040283529160200191610415565b820191906000526020600020905b8154815290600101906020018083116103f857829003601f168201915b505050505081526020016001820160009054906101000a900460ff1660ff1660ff16815260200160028201805461044b9061236d565b80601f01602080910402602001604051908101604052809291908181526020018280546104779061236d565b80156104c45780601f10610499576101008083540402835291602001916104c4565b820191906000526020600020905b8154815290600101906020018083116104a757829003601f168201915b505050505081526020016003820160009054906101000a900460ff1660ff1660ff168152505081526020019060010190610369565b50505050905090565b6000600260008373ffffffffffffffffffffffffffffffffffffffff1673ffffffffffffffffffffffffffffffffffffffff16815260200190815260200160002060009054906101000a900460ff169050919050565b60606006805480602002602001604051908101604052809291908181526020016000905b8282101561070c57838290600052602060002090600402016040518060800160405290816000820180546105af9061236d565b80601f01602080910402602001604051908101604052809291908181526020018280546105db9061236d565b80156106285780601f106105fd57610100808354040283529160200191610628565b820191906000526020600020905b81548152906001019060200180831161060b57829003601f168201915b505050505081526020016001820160009054906101000a900460ff1660ff1660ff16815260200160028201805461065e9061236d565b80601f016020809104026020016040519081016040528092919081815260200182805461068a9061236d565b80156106d75780601f106106ac576101008083540402835291602001916106d7565b820191906000526020600020905b8154815290600101906020018083116106ba57829003601f168201915b505050505081526020016003820160009054906101000a900460ff1660ff1660ff16815250508152602001906001019061057c565b50505050905090565b60005b83518110156108c35760056040518060800160405280868481518110610767577f4e487b7100000000000000000000000000000000000000000000000000000000600052603260045260246000fd5b602002602001015181526020018584815181106107ad577f4e487b7100000000000000000000000000000000000000000000000000000000600052603260045260246000fd5b602002602001015160ff1681526020018484815181106107f6577f4e487b7100000000000000000000000000000000000000000000000000000000600052603260045260246000fd5b60200260200101518152602001600060ff1681525090806001815401808255809150506001900390600052602060002090600402016000909190919091506000820151816000019080519060200190610850929190611717565b5060208201518160010160006101000a81548160ff021916908360ff160217905550604082015181600201908051906020019061088e929190611717565b5060608201518160030160006101000a81548160ff021916908360ff1602179055505050806108bc906123d0565b9050610718565b50505050565b600581815481106108d957600080fd5b90600052602060002090600402016000915090508060000180546108fc9061236d565b80601f01602080910402602001604051908101604052809291908181526020018280546109289061236d565b80156109755780601f1061094a57610100808354040283529160200191610975565b820191906000526020600020905b81548152906001019060200180831161095857829003601f168201915b5050505050908060010160009054906101000a900460ff169080600201805461099d9061236d565b80601f01602080910402602001604051908101604052809291908181526020018280546109c99061236d565b8015610a165780601f106109eb57610100808354040283529160200191610a16565b820191906000526020600020905b8154815290600101906020018083116109f957829003601f168201915b5050505050908060030160009054906101000a900460ff16905084565b610a3b61179d565b610a4361179d565b60005b6003811015610c545760068181548110610a89577f4e487b7100000000000000000000000000000000000000000000000000000000600052603260045260246000fd5b9060005260206000209060040201604051806080016040529081600082018054610ab29061236d565b80601f0160208091040260200160405190810160405280929190818152602001828054610ade9061236d565b8015610b2b5780601f10610b0057610100808354040283529160200191610b2b565b820191906000526020600020905b815481529060010190602001808311610b0e57829003601f168201915b505050505081526020016001820160009054906101000a900460ff1660ff1660ff168152602001600282018054610b619061236d565b80601f0160208091040260200160405190810160405280929190818152602001828054610b8d9061236d565b8015610bda5780601f10610baf57610100808354040283529160200191610bda565b820191906000526020600020905b815481529060010190602001808311610bbd57829003601f168201915b505050505081526020016003820160009054906101000a900460ff1660ff1660ff1681525050828260038110610c39577f4e487b7100000000000000000000000000000000000000000000000000000000600052603260045260246000fd5b60200201819052508080610c4c906123d0565b915050610a46565b508091505090565b610c6581610db1565b15610ca5576040517f08c379a0000000000000000000000000000000000000000000000000000000008152600401610c9c90612108565b60405180910390fd5b6001600360008373ffffffffffffffffffffffffffffffffffffffff1673ffffffffffffffffffffffffffffffffffffffff16815260200190815260200160002060006101000a81548160ff021916908315150217905550600160009054906101000a900473ffffffffffffffffffffffffffffffffffffffff1673ffffffffffffffffffffffffffffffffffffffff16636a627842826040518263ffffffff1660e01b8152600401610d589190611fc0565b600060405180830381600087803b158015610d7257600080fd5b505af1158015610d86573d6000803e3d6000fd5b5050505050565b60008054906101000a900473ffffffffffffffffffffffffffffffffffffffff1681565b6000600360008373ffffffffffffffffffffffffffffffffffffffff1673ffffffffffffffffffffffffffffffffffffffff16815260200190815260200160002060009054906101000a900460ff169050919050565b60068181548110610e1757600080fd5b9060005260206000209060040201600091509050806000018054610e3a9061236d565b80601f0160208091040260200160405190810160405280929190818152602001828054610e669061236d565b8015610eb35780601f10610e8857610100808354040283529160200191610eb3565b820191906000526020600020905b815481529060010190602001808311610e9657829003601f168201915b5050505050908060010160009054906101000a900460ff1690806002018054610edb9061236d565b80601f0160208091040260200160405190810160405280929190818152602001828054610f079061236d565b8015610f545780601f10610f2957610100808354040283529160200191610f54565b820191906000526020600020905b815481529060010190602001808311610f3757829003601f168201915b5050505050908060030160009054906101000a900460ff16905084565b60048181548110610f8157600080fd5b90600052602060002090600202016000915090508060000160009054906101000a900460ff16908060000160019054906101000a900473ffffffffffffffffffffffffffffffffffffffff16908060010154905083565b600160009054906101000a900473ffffffffffffffffffffffffffffffffffffffff1681565b600160009054906101000a900473ffffffffffffffffffffffffffffffffffffffff1673ffffffffffffffffffffffffffffffffffffffff166379cc679082846040518363ffffffff1660e01b815260040161105b929190611fdb565b600060405180830381600087803b15801561107557600080fd5b505af1158015611089573d6000803e3d6000fd5b505050506001600260008373ffffffffffffffffffffffffffffffffffffffff1673ffffffffffffffffffffffffffffffffffffffff16815260200190815260200160002060006101000a81548160ff021916908315150217905550600460405180606001604052806001151581526020018373ffffffffffffffffffffffffffffffffffffffff1681526020018560ff16815250908060018154018082558091505060019003906000526020600020906002020160009091909190915060008201518160000160006101000a81548160ff02191690831515021790555060208201518160000160016101000a81548173ffffffffffffffffffffffffffffffffffffffff021916908373ffffffffffffffffffffffffffffffffffffffff160217905550604082015181600101555050600160058460ff16815481106111f9577f4e487b7100000000000000000000000000000000000000000000000000000000600052603260045260246000fd5b906000526020600020906004020160030160008282829054906101000a900460ff166112259190612269565b92506101000a81548160ff021916908360ff16021790555061124561124a565b505050565b6005600690805461125c9291906117ca565b5060005b600680549050811015611714576000600190505b60068054905081101561170057600681815481106112bb577f4e487b7100000000000000000000000000000000000000000000000000000000600052603260045260246000fd5b906000526020600020906004020160030160009054906101000a900460ff1660ff1660068381548110611317577f4e487b7100000000000000000000000000000000000000000000000000000000600052603260045260246000fd5b906000526020600020906004020160030160009054906101000a900460ff1660ff1610156116ed5760006006838154811061137b577f4e487b7100000000000000000000000000000000000000000000000000000000600052603260045260246000fd5b90600052602060002090600402016040518060800160405290816000820180546113a49061236d565b80601f01602080910402602001604051908101604052809291908181526020018280546113d09061236d565b801561141d5780601f106113f25761010080835404028352916020019161141d565b820191906000526020600020905b81548152906001019060200180831161140057829003601f168201915b505050505081526020016001820160009054906101000a900460ff1660ff1660ff1681526020016002820180546114539061236d565b80601f016020809104026020016040519081016040528092919081815260200182805461147f9061236d565b80156114cc5780601f106114a1576101008083540402835291602001916114cc565b820191906000526020600020905b8154815290600101906020018083116114af57829003601f168201915b505050505081526020016003820160009054906101000a900460ff1660ff1660ff168152505090506006828154811061152e577f4e487b7100000000000000000000000000000000000000000000000000000000600052603260045260246000fd5b906000526020600020906004020160068481548110611576577f4e487b7100000000000000000000000000000000000000000000000000000000600052603260045260246000fd5b906000526020600020906004020160008201816000019080546115989061236d565b6115a39291906118be565b506001820160009054906101000a900460ff168160010160006101000a81548160ff021916908360ff16021790555060028201816002019080546115e69061236d565b6115f19291906118be565b506003820160009054906101000a900460ff168160030160006101000a81548160ff021916908360ff160217905550905050806006838154811061165e577f4e487b7100000000000000000000000000000000000000000000000000000000600052603260045260246000fd5b90600052602060002090600402016000820151816000019080519060200190611688929190611717565b5060208201518160010160006101000a81548160ff021916908360ff16021790555060408201518160020190805190602001906116c6929190611717565b5060608201518160030160006101000a81548160ff021916908360ff160217905550905050505b80806116f8906123d0565b915050611274565b50808061170c906123d0565b915050611260565b50565b8280546117239061236d565b90600052602060002090601f016020900481019282611745576000855561178c565b82601f1061175e57805160ff191683800117855561178c565b8280016001018555821561178c579182015b8281111561178b578251825591602001919060010190611770565b5b509050611799919061194b565b5090565b60405180606001604052806003905b6117b4611968565b8152602001906001900390816117ac5790505090565b8280548282559060005260206000209060040281019282156118ad5760005260206000209160040282015b828111156118ac57828260008201816000019080546118139061236d565b61181e9291906118be565b506001820160009054906101000a900460ff168160010160006101000a81548160ff021916908360ff16021790555060028201816002019080546118619061236d565b61186c9291906118be565b506003820160009054906101000a900460ff168160030160006101000a81548160ff021916908360ff1602179055505050916004019190600401906117f5565b5b5090506118ba9190611996565b5090565b8280546118ca9061236d565b90600052602060002090601f0160209004810192826118ec576000855561193a565b82601f106118fd578054855561193a565b8280016001018555821561193a57600052602060002091601f016020900482015b8281111561193957825482559160010191906001019061191e565b5b509050611947919061194b565b5090565b5b8082111561196457600081600090555060010161194c565b5090565b604051806080016040528060608152602001600060ff16815260200160608152602001600060ff1681525090565b5b808211156119f157600080820160006119b091906119f5565b6001820160006101000a81549060ff02191690556002820160006119d491906119f5565b6003820160006101000a81549060ff021916905550600401611997565b5090565b508054611a019061236d565b6000825580601f10611a135750611a32565b601f016020900490600052602060002090810190611a31919061194b565b5b50565b6000611a48611a438461214d565b612128565b90508083825260208201905082856020860282011115611a6757600080fd5b60005b85811015611ab157813567ffffffffffffffff811115611a8957600080fd5b808601611a968982611bce565b85526020850194506020840193505050600181019050611a6a565b5050509392505050565b6000611ace611ac984612179565b612128565b90508083825260208201905082856020860282011115611aed57600080fd5b60005b85811015611b1d5781611b038882611c0d565b845260208401935060208301925050600181019050611af0565b5050509392505050565b6000611b3a611b35846121a5565b612128565b905082815260208101848484011115611b5257600080fd5b611b5d84828561232b565b509392505050565b600081359050611b74816124e0565b92915050565b600082601f830112611b8b57600080fd5b8135611b9b848260208601611a35565b91505092915050565b600082601f830112611bb557600080fd5b8135611bc5848260208601611abb565b91505092915050565b600082601f830112611bdf57600080fd5b8135611bef848260208601611b27565b91505092915050565b600081359050611c07816124f7565b92915050565b600081359050611c1c8161250e565b92915050565b600060208284031215611c3457600080fd5b6000611c4284828501611b65565b91505092915050565b600080600060608486031215611c6057600080fd5b600084013567ffffffffffffffff811115611c7a57600080fd5b611c8686828701611b7a565b935050602084013567ffffffffffffffff811115611ca357600080fd5b611caf86828701611ba4565b925050604084013567ffffffffffffffff811115611ccc57600080fd5b611cd886828701611b7a565b9150509250925092565b600060208284031215611cf457600080fd5b6000611d0284828501611bf8565b91505092915050565b600080600060608486031215611d2057600080fd5b6000611d2e86828701611c0d565b9350506020611d3f86828701611c0d565b9250506040611d5086828701611b65565b9150509250925092565b6000611d668383611f1a565b905092915050565b611d77816122a0565b82525050565b6000611d88826121f0565b611d92818561222b565b935083602082028501611da4856121d6565b8060005b85811015611de05784840389528151611dc18582611d5a565b9450611dcc83612211565b925060208a01995050600181019050611da8565b50829750879550505050505092915050565b6000611dfd826121fb565b611e078185612236565b935083602082028501611e19856121e0565b8060005b85811015611e555784840389528151611e368582611d5a565b9450611e418361221e565b925060208a01995050600181019050611e1d565b50829750879550505050505092915050565b611e70816122b2565b82525050565b611e7f816122f5565b82525050565b6000611e9082612206565b611e9a8185612247565b9350611eaa81856020860161233a565b611eb3816124a6565b840191505092915050565b6000611ec982612206565b611ed38185612258565b9350611ee381856020860161233a565b611eec816124a6565b840191505092915050565b6000611f04601883612258565b9150611f0f826124b7565b602082019050919050565b60006080830160008301518482036000860152611f378282611e85565b9150506020830151611f4c6020860182611fa2565b5060408301518482036040860152611f648282611e85565b9150506060830151611f796060860182611fa2565b508091505092915050565b611f8d816122de565b82525050565b611f9c81612319565b82525050565b611fab816122e8565b82525050565b611fba816122e8565b82525050565b6000602082019050611fd56000830184611d6e565b92915050565b6000604082019050611ff06000830185611d6e565b611ffd6020830184611f93565b9392505050565b6000602082019050818103600083015261201e8184611d7d565b905092915050565b600060208201905081810360008301526120408184611df2565b905092915050565b600060208201905061205d6000830184611e67565b92915050565b60006060820190506120786000830186611e67565b6120856020830185611d6e565b6120926040830184611f84565b949350505050565b60006020820190506120af6000830184611e76565b92915050565b600060808201905081810360008301526120cf8187611ebe565b90506120de6020830186611fb1565b81810360408301526120f08185611ebe565b90506120ff6060830184611fb1565b95945050505050565b6000602082019050818103600083015261212181611ef7565b9050919050565b6000612132612143565b905061213e828261239f565b919050565b6000604051905090565b600067ffffffffffffffff82111561216857612167612477565b5b602082029050602081019050919050565b600067ffffffffffffffff82111561219457612193612477565b5b602082029050602081019050919050565b600067ffffffffffffffff8211156121c0576121bf612477565b5b6121c9826124a6565b9050602081019050919050565b6000819050919050565b6000819050602082019050919050565b600060039050919050565b600081519050919050565b600081519050919050565b6000602082019050919050565b6000602082019050919050565b600081905092915050565b600082825260208201905092915050565b600082825260208201905092915050565b600082825260208201905092915050565b6000612274826122e8565b915061227f836122e8565b92508260ff0382111561229557612294612419565b5b828201905092915050565b60006122ab826122be565b9050919050565b60008115159050919050565b600073ffffffffffffffffffffffffffffffffffffffff82169050919050565b6000819050919050565b600060ff82169050919050565b600061230082612307565b9050919050565b6000612312826122be565b9050919050565b6000612324826122e8565b9050919050565b82818337600083830152505050565b60005b8381101561235857808201518184015260208101905061233d565b83811115612367576000848401525b50505050565b6000600282049050600182168061238557607f821691505b6020821081141561239957612398612448565b5b50919050565b6123a8826124a6565b810181811067ffffffffffffffff821117156123c7576123c6612477565b5b80604052505050565b60006123db826122de565b91507fffffffffffffffffffffffffffffffffffffffffffffffffffffffffffffffff82141561240e5761240d612419565b5b600182019050919050565b7f4e487b7100000000000000000000000000000000000000000000000000000000600052601160045260246000fd5b7f4e487b7100000000000000000000000000000000000000000000000000000000600052602260045260246000fd5b7f4e487b7100000000000000000000000000000000000000000000000000000000600052604160045260246000fd5b6000601f19601f8301169050919050565b7f566f74657220616c726561647920726567697374657265640000000000000000600082015250565b6124e9816122a0565b81146124f457600080fd5b50565b612500816122de565b811461250b57600080fd5b50565b612517816122e8565b811461252257600080fd5b5056fea2646970667358221220e8a595eb99e4ad454d7e35c020af8f0757cfe7e678e77aa6458d882a80d7279364736f6c63430008040033",
  "linkReferences": {},
  "deployedLinkReferences": {}
}