{
  "_format": "hh-sol-artifact-1",
  "contractName": "WKND",
  "sourceName": "contracts/WKND.sol",
  "abi": [
    {
      "inputs": [],
      "stateMutability": "nonpayable",
      "type": "constructor"
    },
    {
      "anonymous": false,
      "inputs": [
        {
          "indexed": true,
          "internalType": "address",
          "name": "owner",
          "type": "address"
        },
        {
          "indexed": true,
          "internalType": "address",
          "name": "spender",
          "type": "address"
        },
        {
          "indexed": false,
          "internalType": "uint256",
          "name": "value",
          "type": "uint256"
        }
      ],
      "name": "Approval",
      "type": "event"
    },
    {
      "anonymous": false,
      "inputs": [
        {
          "indexed": true,
          "internalType": "address",
          "name": "from",
          "type": "address"
        },
        {
          "indexed": true,
          "internalType": "address",
          "name": "to",
          "type": "address"
        },
        {
          "indexed": false,
          "internalType": "uint256",
          "name": "value",
          "type": "uint256"
        }
      ],
      "name": "Transfer",
      "type": "event"
    },
    {
      "inputs": [
        {
          "internalType": "address",
          "name": "owner",
          "type": "address"
        },
        {
          "internalType": "address",
          "name": "spender",
          "type": "address"
        }
      ],
      "name": "allowance",
      "outputs": [
        {
          "internalType": "uint256",
          "name": "",
          "type": "uint256"
        }
      ],
      "stateMutability": "view",
      "type": "function"
    },
    {
      "inputs": [
        {
          "internalType": "address",
          "name": "spender",
          "type": "address"
        },
        {
          "internalType": "uint256",
          "name": "amount",
          "type": "uint256"
        }
      ],
      "name": "approve",
      "outputs": [
        {
          "internalType": "bool",
          "name": "",
          "type": "bool"
        }
      ],
      "stateMutability": "nonpayable",
      "type": "function"
    },
    {
      "inputs": [
        {
          "internalType": "address",
          "name": "account",
          "type": "address"
        }
      ],
      "name": "balanceOf",
      "outputs": [
        {
          "internalType": "uint256",
          "name": "",
          "type": "uint256"
        }
      ],
      "stateMutability": "view",
      "type": "function"
    },
    {
      "inputs": [
        {
          "internalType": "uint256",
          "name": "amount",
          "type": "uint256"
        }
      ],
      "name": "burn",
      "outputs": [],
      "stateMutability": "nonpayable",
      "type": "function"
    },
    {
      "inputs": [],
      "name": "decimals",
      "outputs": [
        {
          "internalType": "uint8",
          "name": "",
          "type": "uint8"
        }
      ],
      "stateMutability": "view",
      "type": "function"
    },
    {
      "inputs": [
        {
          "internalType": "address",
          "name": "spender",
          "type": "address"
        },
        {
          "internalType": "uint256",
          "name": "subtractedValue",
          "type": "uint256"
        }
      ],
      "name": "decreaseAllowance",
      "outputs": [
        {
          "internalType": "bool",
          "name": "",
          "type": "bool"
        }
      ],
      "stateMutability": "nonpayable",
      "type": "function"
    },
    {
      "inputs": [
        {
          "internalType": "address",
          "name": "spender",
          "type": "address"
        },
        {
          "internalType": "uint256",
          "name": "addedValue",
          "type": "uint256"
        }
      ],
      "name": "increaseAllowance",
      "outputs": [
        {
          "internalType": "bool",
          "name": "",
          "type": "bool"
        }
      ],
      "stateMutability": "nonpayable",
      "type": "function"
    },
    {
      "inputs": [
        {
          "internalType": "address",
          "name": "to",
          "type": "address"
        }
      ],
      "name": "mint",
      "outputs": [],
      "stateMutability": "nonpayable",
      "type": "function"
    },
    {
      "inputs": [],
      "name": "name",
      "outputs": [
        {
          "internalType": "string",
          "name": "",
          "type": "string"
        }
      ],
      "stateMutability": "view",
      "type": "function"
    },
    {
      "inputs": [],
      "name": "owner",
      "outputs": [
        {
          "internalType": "address",
          "name": "",
          "type": "address"
        }
      ],
      "stateMutability": "view",
      "type": "function"
    },
    {
      "inputs": [],
      "name": "symbol",
      "outputs": [
        {
          "internalType": "string",
          "name": "",
          "type": "string"
        }
      ],
      "stateMutability": "view",
      "type": "function"
    },
    {
      "inputs": [],
      "name": "totalSupply",
      "outputs": [
        {
          "internalType": "uint256",
          "name": "",
          "type": "uint256"
        }
      ],
      "stateMutability": "view",
      "type": "function"
    },
    {
      "inputs": [
        {
          "internalType": "address",
          "name": "to",
          "type": "address"
        },
        {
          "internalType": "uint256",
          "name": "amount",
          "type": "uint256"
        }
      ],
      "name": "transfer",
      "outputs": [
        {
          "internalType": "bool",
          "name": "",
          "type": "bool"
        }
      ],
      "stateMutability": "nonpayable",
      "type": "function"
    },
    {
      "inputs": [
        {
          "internalType": "address",
          "name": "from",
          "type": "address"
        },
        {
          "internalType": "address",
          "name": "to",
          "type": "address"
        },
        {
          "internalType": "uint256",
          "name": "amount",
          "type": "uint256"
        }
      ],
      "name": "transferFrom",
      "outputs": [
        {
          "internalType": "bool",
          "name": "",
          "type": "bool"
        }
      ],
      "stateMutability": "nonpayable",
      "type": "function"
    }
  ],
  "bytecode": "0x60806040523480156200001157600080fd5b506040518060400160405280601481526020017f57616b616e646120566f74696e6720546f6b656e0000000000000000000000008152506040518060400160405280600481526020017f574b4e4400000000000000000000000000000000000000000000000000000000815250816003908051906020019062000096929190620000f9565b508060049080519060200190620000af929190620000f9565b50505033600560006101000a81548173ffffffffffffffffffffffffffffffffffffffff021916908373ffffffffffffffffffffffffffffffffffffffff1602179055506200020e565b8280546200010790620001a9565b90600052602060002090601f0160209004810192826200012b576000855562000177565b82601f106200014657805160ff191683800117855562000177565b8280016001018555821562000177579182015b828111156200017657825182559160200191906001019062000159565b5b5090506200018691906200018a565b5090565b5b80821115620001a55760008160009055506001016200018b565b5090565b60006002820490506001821680620001c257607f821691505b60208210811415620001d957620001d8620001df565b5b50919050565b7f4e487b7100000000000000000000000000000000000000000000000000000000600052602260045260246000fd5b6117fd806200021e6000396000f3fe608060405234801561001057600080fd5b50600436106100ea5760003560e01c80636a6278421161008c57806395d89b411161006657806395d89b411461025f578063a457c2d71461027d578063a9059cbb146102ad578063dd62ed3e146102dd576100ea565b80636a627842146101f557806370a08231146102115780638da5cb5b14610241576100ea565b806323b872dd116100c857806323b872dd1461015b578063313ce5671461018b57806339509351146101a957806342966c68146101d9576100ea565b806306fdde03146100ef578063095ea7b31461010d57806318160ddd1461013d575b600080fd5b6100f761030d565b6040516101049190611432565b60405180910390f35b61012760048036038101906101229190610f72565b61039f565b6040516101349190611417565b60405180910390f35b6101456103c2565b6040516101529190611594565b60405180910390f35b61017560048036038101906101709190610f23565b6103cc565b6040516101829190611417565b60405180910390f35b6101936103fb565b6040516101a091906115af565b60405180910390f35b6101c360048036038101906101be9190610f72565b610400565b6040516101d09190611417565b60405180910390f35b6101f360048036038101906101ee9190610fae565b610437565b005b61020f600480360381019061020a9190610ebe565b610444565b005b61022b60048036038101906102269190610ebe565b610452565b6040516102389190611594565b60405180910390f35b61024961049a565b60405161025691906113fc565b60405180910390f35b6102676104c0565b6040516102749190611432565b60405180910390f35b61029760048036038101906102929190610f72565b610552565b6040516102a49190611417565b60405180910390f35b6102c760048036038101906102c29190610f72565b6105c9565b6040516102d49190611417565b60405180910390f35b6102f760048036038101906102f29190610ee7565b6105ec565b6040516103049190611594565b60405180910390f35b60606003805461031c906116f8565b80601f0160208091040260200160405190810160405280929190818152602001828054610348906116f8565b80156103955780601f1061036a57610100808354040283529160200191610395565b820191906000526020600020905b81548152906001019060200180831161037857829003601f168201915b5050505050905090565b6000806103aa610673565b90506103b781858561067b565b600191505092915050565b6000600254905090565b6000806103d7610673565b90506103e4858285610846565b6103ef8585856108d2565b60019150509392505050565b600090565b60008061040b610673565b905061042c81858561041d85896105ec565b61042791906115e6565b61067b565b600191505092915050565b6104413382610b53565b50565b61044f816001610d2a565b50565b60008060008373ffffffffffffffffffffffffffffffffffffffff1673ffffffffffffffffffffffffffffffffffffffff168152602001908152602001600020549050919050565b600560009054906101000a900473ffffffffffffffffffffffffffffffffffffffff1681565b6060600480546104cf906116f8565b80601f01602080910402602001604051908101604052809291908181526020018280546104fb906116f8565b80156105485780601f1061051d57610100808354040283529160200191610548565b820191906000526020600020905b81548152906001019060200180831161052b57829003601f168201915b5050505050905090565b60008061055d610673565b9050600061056b82866105ec565b9050838110156105b0576040517f08c379a00000000000000000000000000000000000000000000000000000000081526004016105a790611554565b60405180910390fd5b6105bd828686840361067b565b60019250505092915050565b6000806105d4610673565b90506105e18185856108d2565b600191505092915050565b6000600160008473ffffffffffffffffffffffffffffffffffffffff1673ffffffffffffffffffffffffffffffffffffffff16815260200190815260200160002060008373ffffffffffffffffffffffffffffffffffffffff1673ffffffffffffffffffffffffffffffffffffffff16815260200190815260200160002054905092915050565b600033905090565b600073ffffffffffffffffffffffffffffffffffffffff168373ffffffffffffffffffffffffffffffffffffffff1614156106eb576040517f08c379a00000000000000000000000000000000000000000000000000000000081526004016106e290611534565b60405180910390fd5b600073ffffffffffffffffffffffffffffffffffffffff168273ffffffffffffffffffffffffffffffffffffffff16141561075b576040517f08c379a000000000000000000000000000000000000000000000000000000000815260040161075290611494565b60405180910390fd5b80600160008573ffffffffffffffffffffffffffffffffffffffff1673ffffffffffffffffffffffffffffffffffffffff16815260200190815260200160002060008473ffffffffffffffffffffffffffffffffffffffff1673ffffffffffffffffffffffffffffffffffffffff168152602001908152602001600020819055508173ffffffffffffffffffffffffffffffffffffffff168373ffffffffffffffffffffffffffffffffffffffff167f8c5be1e5ebec7d5bd14f71427d1e84f3dd0314c0f7b2291e5b200ac8c7c3b925836040516108399190611594565b60405180910390a3505050565b600061085284846105ec565b90507fffffffffffffffffffffffffffffffffffffffffffffffffffffffffffffffff81146108cc57818110156108be576040517f08c379a00000000000000000000000000000000000000000000000000000000081526004016108b5906114b4565b60405180910390fd5b6108cb848484840361067b565b5b50505050565b600073ffffffffffffffffffffffffffffffffffffffff168373ffffffffffffffffffffffffffffffffffffffff161415610942576040517f08c379a000000000000000000000000000000000000000000000000000000000815260040161093990611514565b60405180910390fd5b600073ffffffffffffffffffffffffffffffffffffffff168273ffffffffffffffffffffffffffffffffffffffff1614156109b2576040517f08c379a00000000000000000000000000000000000000000000000000000000081526004016109a990611454565b60405180910390fd5b6109bd838383610e8a565b60008060008573ffffffffffffffffffffffffffffffffffffffff1673ffffffffffffffffffffffffffffffffffffffff16815260200190815260200160002054905081811015610a43576040517f08c379a0000000000000000000000000000000000000000000000000000000008152600401610a3a906114d4565b60405180910390fd5b8181036000808673ffffffffffffffffffffffffffffffffffffffff1673ffffffffffffffffffffffffffffffffffffffff16815260200190815260200160002081905550816000808573ffffffffffffffffffffffffffffffffffffffff1673ffffffffffffffffffffffffffffffffffffffff1681526020019081526020016000206000828254610ad691906115e6565b925050819055508273ffffffffffffffffffffffffffffffffffffffff168473ffffffffffffffffffffffffffffffffffffffff167fddf252ad1be2c89b69c2b068fc378daa952ba7f163c4a11628f55a4df523b3ef84604051610b3a9190611594565b60405180910390a3610b4d848484610e8f565b50505050565b600073ffffffffffffffffffffffffffffffffffffffff168273ffffffffffffffffffffffffffffffffffffffff161415610bc3576040517f08c379a0000000000000000000000000000000000000000000000000000000008152600401610bba906114f4565b60405180910390fd5b610bcf82600083610e8a565b60008060008473ffffffffffffffffffffffffffffffffffffffff1673ffffffffffffffffffffffffffffffffffffffff16815260200190815260200160002054905081811015610c55576040517f08c379a0000000000000000000000000000000000000000000000000000000008152600401610c4c90611474565b60405180910390fd5b8181036000808573ffffffffffffffffffffffffffffffffffffffff1673ffffffffffffffffffffffffffffffffffffffff168152602001908152602001600020819055508160026000828254610cac919061163c565b92505081905550600073ffffffffffffffffffffffffffffffffffffffff168373ffffffffffffffffffffffffffffffffffffffff167fddf252ad1be2c89b69c2b068fc378daa952ba7f163c4a11628f55a4df523b3ef84604051610d119190611594565b60405180910390a3610d2583600084610e8f565b505050565b600073ffffffffffffffffffffffffffffffffffffffff168273ffffffffffffffffffffffffffffffffffffffff161415610d9a576040517f08c379a0000000000000000000000000000000000000000000000000000000008152600401610d9190611574565b60405180910390fd5b610da660008383610e8a565b8060026000828254610db891906115e6565b92505081905550806000808473ffffffffffffffffffffffffffffffffffffffff1673ffffffffffffffffffffffffffffffffffffffff1681526020019081526020016000206000828254610e0d91906115e6565b925050819055508173ffffffffffffffffffffffffffffffffffffffff16600073ffffffffffffffffffffffffffffffffffffffff167fddf252ad1be2c89b69c2b068fc378daa952ba7f163c4a11628f55a4df523b3ef83604051610e729190611594565b60405180910390a3610e8660008383610e8f565b5050565b505050565b505050565b600081359050610ea381611799565b92915050565b600081359050610eb8816117b0565b92915050565b600060208284031215610ed057600080fd5b6000610ede84828501610e94565b91505092915050565b60008060408385031215610efa57600080fd5b6000610f0885828601610e94565b9250506020610f1985828601610e94565b9150509250929050565b600080600060608486031215610f3857600080fd5b6000610f4686828701610e94565b9350506020610f5786828701610e94565b9250506040610f6886828701610ea9565b9150509250925092565b60008060408385031215610f8557600080fd5b6000610f9385828601610e94565b9250506020610fa485828601610ea9565b9150509250929050565b600060208284031215610fc057600080fd5b6000610fce84828501610ea9565b91505092915050565b610fe081611670565b82525050565b610fef81611682565b82525050565b6000611000826115ca565b61100a81856115d5565b935061101a8185602086016116c5565b61102381611788565b840191505092915050565b600061103b6023836115d5565b91507f45524332303a207472616e7366657220746f20746865207a65726f206164647260008301527f65737300000000000000000000000000000000000000000000000000000000006020830152604082019050919050565b60006110a16022836115d5565b91507f45524332303a206275726e20616d6f756e7420657863656564732062616c616e60008301527f63650000000000000000000000000000000000000000000000000000000000006020830152604082019050919050565b60006111076022836115d5565b91507f45524332303a20617070726f766520746f20746865207a65726f20616464726560008301527f73730000000000000000000000000000000000000000000000000000000000006020830152604082019050919050565b600061116d601d836115d5565b91507f45524332303a20696e73756666696369656e7420616c6c6f77616e63650000006000830152602082019050919050565b60006111ad6026836115d5565b91507f45524332303a207472616e7366657220616d6f756e742065786365656473206260008301527f616c616e636500000000000000000000000000000000000000000000000000006020830152604082019050919050565b60006112136021836115d5565b91507f45524332303a206275726e2066726f6d20746865207a65726f2061646472657360008301527f73000000000000000000000000000000000000000000000000000000000000006020830152604082019050919050565b60006112796025836115d5565b91507f45524332303a207472616e736665722066726f6d20746865207a65726f20616460008301527f64726573730000000000000000000000000000000000000000000000000000006020830152604082019050919050565b60006112df6024836115d5565b91507f45524332303a20617070726f76652066726f6d20746865207a65726f2061646460008301527f72657373000000000000000000000000000000000000000000000000000000006020830152604082019050919050565b60006113456025836115d5565b91507f45524332303a2064656372656173656420616c6c6f77616e63652062656c6f7760008301527f207a65726f0000000000000000000000000000000000000000000000000000006020830152604082019050919050565b60006113ab601f836115d5565b91507f45524332303a206d696e7420746f20746865207a65726f2061646472657373006000830152602082019050919050565b6113e7816116ae565b82525050565b6113f6816116b8565b82525050565b60006020820190506114116000830184610fd7565b92915050565b600060208201905061142c6000830184610fe6565b92915050565b6000602082019050818103600083015261144c8184610ff5565b905092915050565b6000602082019050818103600083015261146d8161102e565b9050919050565b6000602082019050818103600083015261148d81611094565b9050919050565b600060208201905081810360008301526114ad816110fa565b9050919050565b600060208201905081810360008301526114cd81611160565b9050919050565b600060208201905081810360008301526114ed816111a0565b9050919050565b6000602082019050818103600083015261150d81611206565b9050919050565b6000602082019050818103600083015261152d8161126c565b9050919050565b6000602082019050818103600083015261154d816112d2565b9050919050565b6000602082019050818103600083015261156d81611338565b9050919050565b6000602082019050818103600083015261158d8161139e565b9050919050565b60006020820190506115a960008301846113de565b92915050565b60006020820190506115c460008301846113ed565b92915050565b600081519050919050565b600082825260208201905092915050565b60006115f1826116ae565b91506115fc836116ae565b9250827fffffffffffffffffffffffffffffffffffffffffffffffffffffffffffffffff038211156116315761163061172a565b5b828201905092915050565b6000611647826116ae565b9150611652836116ae565b9250828210156116655761166461172a565b5b828203905092915050565b600061167b8261168e565b9050919050565b60008115159050919050565b600073ffffffffffffffffffffffffffffffffffffffff82169050919050565b6000819050919050565b600060ff82169050919050565b60005b838110156116e35780820151818401526020810190506116c8565b838111156116f2576000848401525b50505050565b6000600282049050600182168061171057607f821691505b6020821081141561172457611723611759565b5b50919050565b7f4e487b7100000000000000000000000000000000000000000000000000000000600052601160045260246000fd5b7f4e487b7100000000000000000000000000000000000000000000000000000000600052602260045260246000fd5b6000601f19601f8301169050919050565b6117a281611670565b81146117ad57600080fd5b50565b6117b9816116ae565b81146117c457600080fd5b5056fea264697066735822122082b68d92ae66b6861ee1142aeb30e5a26cba76929f2e216050488e21ddbbf1f464736f6c63430008000033",
  "linkReferences": {},
  "deployedLinkReferences": {}
}