{
  "_format": "hh-sol-artifact-1",
  "contractName": "WKND",
  "sourceName": "contracts/WKND.sol",
  "abi": [
    {
      "inputs": [],
      "stateMutability": "nonpayable",
      "type": "constructor"
    },
    {
      "anonymous": false,
      "inputs": [
        {
          "indexed": true,
          "internalType": "address",
          "name": "owner",
          "type": "address"
        },
        {
          "indexed": true,
          "internalType": "address",
          "name": "spender",
          "type": "address"
        },
        {
          "indexed": false,
          "internalType": "uint256",
          "name": "value",
          "type": "uint256"
        }
      ],
      "name": "Approval",
      "type": "event"
    },
    {
      "anonymous": false,
      "inputs": [
        {
          "indexed": true,
          "internalType": "address",
          "name": "from",
          "type": "address"
        },
        {
          "indexed": true,
          "internalType": "address",
          "name": "to",
          "type": "address"
        },
        {
          "indexed": false,
          "internalType": "uint256",
          "name": "value",
          "type": "uint256"
        }
      ],
      "name": "Transfer",
      "type": "event"
    },
    {
      "inputs": [
        {
          "internalType": "address",
          "name": "owner",
          "type": "address"
        },
        {
          "internalType": "address",
          "name": "spender",
          "type": "address"
        }
      ],
      "name": "allowance",
      "outputs": [
        {
          "internalType": "uint256",
          "name": "",
          "type": "uint256"
        }
      ],
      "stateMutability": "view",
      "type": "function"
    },
    {
      "inputs": [
        {
          "internalType": "address",
          "name": "spender",
          "type": "address"
        },
        {
          "internalType": "uint256",
          "name": "amount",
          "type": "uint256"
        }
      ],
      "name": "approve",
      "outputs": [
        {
          "internalType": "bool",
          "name": "",
          "type": "bool"
        }
      ],
      "stateMutability": "nonpayable",
      "type": "function"
    },
    {
      "inputs": [
        {
          "internalType": "address",
          "name": "account",
          "type": "address"
        }
      ],
      "name": "balanceOf",
      "outputs": [
        {
          "internalType": "uint256",
          "name": "",
          "type": "uint256"
        }
      ],
      "stateMutability": "view",
      "type": "function"
    },
    {
      "inputs": [
        {
          "internalType": "uint256",
          "name": "amount",
          "type": "uint256"
        }
      ],
      "name": "burn",
      "outputs": [],
      "stateMutability": "nonpayable",
      "type": "function"
    },
    {
      "inputs": [
        {
          "internalType": "address",
          "name": "_address",
          "type": "address"
        },
        {
          "internalType": "uint256",
          "name": "amount",
          "type": "uint256"
        }
      ],
      "name": "burnFrom",
      "outputs": [],
      "stateMutability": "nonpayable",
      "type": "function"
    },
    {
      "inputs": [],
      "name": "decimals",
      "outputs": [
        {
          "internalType": "uint8",
          "name": "",
          "type": "uint8"
        }
      ],
      "stateMutability": "view",
      "type": "function"
    },
    {
      "inputs": [
        {
          "internalType": "address",
          "name": "spender",
          "type": "address"
        },
        {
          "internalType": "uint256",
          "name": "subtractedValue",
          "type": "uint256"
        }
      ],
      "name": "decreaseAllowance",
      "outputs": [
        {
          "internalType": "bool",
          "name": "",
          "type": "bool"
        }
      ],
      "stateMutability": "nonpayable",
      "type": "function"
    },
    {
      "inputs": [
        {
          "internalType": "address",
          "name": "spender",
          "type": "address"
        },
        {
          "internalType": "uint256",
          "name": "addedValue",
          "type": "uint256"
        }
      ],
      "name": "increaseAllowance",
      "outputs": [
        {
          "internalType": "bool",
          "name": "",
          "type": "bool"
        }
      ],
      "stateMutability": "nonpayable",
      "type": "function"
    },
    {
      "inputs": [
        {
          "internalType": "address",
          "name": "_address",
          "type": "address"
        }
      ],
      "name": "mint",
      "outputs": [],
      "stateMutability": "nonpayable",
      "type": "function"
    },
    {
      "inputs": [],
      "name": "name",
      "outputs": [
        {
          "internalType": "string",
          "name": "",
          "type": "string"
        }
      ],
      "stateMutability": "view",
      "type": "function"
    },
    {
      "inputs": [],
      "name": "owner",
      "outputs": [
        {
          "internalType": "address",
          "name": "",
          "type": "address"
        }
      ],
      "stateMutability": "view",
      "type": "function"
    },
    {
      "inputs": [],
      "name": "symbol",
      "outputs": [
        {
          "internalType": "string",
          "name": "",
          "type": "string"
        }
      ],
      "stateMutability": "view",
      "type": "function"
    },
    {
      "inputs": [],
      "name": "totalSupply",
      "outputs": [
        {
          "internalType": "uint256",
          "name": "",
          "type": "uint256"
        }
      ],
      "stateMutability": "view",
      "type": "function"
    },
    {
      "inputs": [
        {
          "internalType": "address",
          "name": "to",
          "type": "address"
        },
        {
          "internalType": "uint256",
          "name": "amount",
          "type": "uint256"
        }
      ],
      "name": "transfer",
      "outputs": [
        {
          "internalType": "bool",
          "name": "",
          "type": "bool"
        }
      ],
      "stateMutability": "nonpayable",
      "type": "function"
    },
    {
      "inputs": [
        {
          "internalType": "address",
          "name": "from",
          "type": "address"
        },
        {
          "internalType": "address",
          "name": "to",
          "type": "address"
        },
        {
          "internalType": "uint256",
          "name": "amount",
          "type": "uint256"
        }
      ],
      "name": "transferFrom",
      "outputs": [
        {
          "internalType": "bool",
          "name": "",
          "type": "bool"
        }
      ],
      "stateMutability": "nonpayable",
      "type": "function"
    }
  ],
  "bytecode": "0x60806040523480156200001157600080fd5b506040518060400160405280600c81526020017f57616b616e6461546f6b656e00000000000000000000000000000000000000008152506040518060400160405280600481526020017f574b4e4400000000000000000000000000000000000000000000000000000000815250816003908051906020019062000096929190620000f9565b508060049080519060200190620000af929190620000f9565b50505033600560006101000a81548173ffffffffffffffffffffffffffffffffffffffff021916908373ffffffffffffffffffffffffffffffffffffffff1602179055506200020e565b8280546200010790620001a9565b90600052602060002090601f0160209004810192826200012b576000855562000177565b82601f106200014657805160ff191683800117855562000177565b8280016001018555821562000177579182015b828111156200017657825182559160200191906001019062000159565b5b5090506200018691906200018a565b5090565b5b80821115620001a55760008160009055506001016200018b565b5090565b60006002820490506001821680620001c257607f821691505b60208210811415620001d957620001d8620001df565b5b50919050565b7f4e487b7100000000000000000000000000000000000000000000000000000000600052602260045260246000fd5b6118aa806200021e6000396000f3fe608060405234801561001057600080fd5b50600436106100f55760003560e01c80636a6278421161009757806395d89b411161006657806395d89b4114610286578063a457c2d7146102a4578063a9059cbb146102d4578063dd62ed3e14610304576100f5565b80636a6278421461020057806370a082311461021c57806379cc67901461024c5780638da5cb5b14610268576100f5565b806323b872dd116100d357806323b872dd14610166578063313ce5671461019657806339509351146101b457806342966c68146101e4576100f5565b806306fdde03146100fa578063095ea7b31461011857806318160ddd14610148575b600080fd5b610102610334565b60405161010f9190611215565b60405180910390f35b610132600480360381019061012d9190610fa7565b6103c6565b60405161013f91906111fa565b60405180910390f35b6101506103e9565b60405161015d9190611377565b60405180910390f35b610180600480360381019061017b9190610f58565b6103f3565b60405161018d91906111fa565b60405180910390f35b61019e610422565b6040516101ab9190611392565b60405180910390f35b6101ce60048036038101906101c99190610fa7565b610427565b6040516101db91906111fa565b60405180910390f35b6101fe60048036038101906101f99190610fe3565b61045e565b005b61021a60048036038101906102159190610ef3565b61046b565b005b61023660048036038101906102319190610ef3565b610479565b6040516102439190611377565b60405180910390f35b61026660048036038101906102619190610fa7565b6104c1565b005b6102706104cf565b60405161027d91906111df565b60405180910390f35b61028e6104f5565b60405161029b9190611215565b60405180910390f35b6102be60048036038101906102b99190610fa7565b610587565b6040516102cb91906111fa565b60405180910390f35b6102ee60048036038101906102e99190610fa7565b6105fe565b6040516102fb91906111fa565b60405180910390f35b61031e60048036038101906103199190610f1c565b610621565b60405161032b9190611377565b60405180910390f35b606060038054610343906114db565b80601f016020809104026020016040519081016040528092919081815260200182805461036f906114db565b80156103bc5780601f10610391576101008083540402835291602001916103bc565b820191906000526020600020905b81548152906001019060200180831161039f57829003601f168201915b5050505050905090565b6000806103d16106a8565b90506103de8185856106b0565b600191505092915050565b6000600254905090565b6000806103fe6106a8565b905061040b85828561087b565b610416858585610907565b60019150509392505050565b600090565b6000806104326106a8565b90506104538185856104448589610621565b61044e91906113c9565b6106b0565b600191505092915050565b6104683382610b88565b50565b610476816001610d5f565b50565b60008060008373ffffffffffffffffffffffffffffffffffffffff1673ffffffffffffffffffffffffffffffffffffffff168152602001908152602001600020549050919050565b6104cb8282610b88565b5050565b600560009054906101000a900473ffffffffffffffffffffffffffffffffffffffff1681565b606060048054610504906114db565b80601f0160208091040260200160405190810160405280929190818152602001828054610530906114db565b801561057d5780601f106105525761010080835404028352916020019161057d565b820191906000526020600020905b81548152906001019060200180831161056057829003601f168201915b5050505050905090565b6000806105926106a8565b905060006105a08286610621565b9050838110156105e5576040517f08c379a00000000000000000000000000000000000000000000000000000000081526004016105dc90611337565b60405180910390fd5b6105f282868684036106b0565b60019250505092915050565b6000806106096106a8565b9050610616818585610907565b600191505092915050565b6000600160008473ffffffffffffffffffffffffffffffffffffffff1673ffffffffffffffffffffffffffffffffffffffff16815260200190815260200160002060008373ffffffffffffffffffffffffffffffffffffffff1673ffffffffffffffffffffffffffffffffffffffff16815260200190815260200160002054905092915050565b600033905090565b600073ffffffffffffffffffffffffffffffffffffffff168373ffffffffffffffffffffffffffffffffffffffff161415610720576040517f08c379a000000000000000000000000000000000000000000000000000000000815260040161071790611317565b60405180910390fd5b600073ffffffffffffffffffffffffffffffffffffffff168273ffffffffffffffffffffffffffffffffffffffff161415610790576040517f08c379a000000000000000000000000000000000000000000000000000000000815260040161078790611277565b60405180910390fd5b80600160008573ffffffffffffffffffffffffffffffffffffffff1673ffffffffffffffffffffffffffffffffffffffff16815260200190815260200160002060008473ffffffffffffffffffffffffffffffffffffffff1673ffffffffffffffffffffffffffffffffffffffff168152602001908152602001600020819055508173ffffffffffffffffffffffffffffffffffffffff168373ffffffffffffffffffffffffffffffffffffffff167f8c5be1e5ebec7d5bd14f71427d1e84f3dd0314c0f7b2291e5b200ac8c7c3b9258360405161086e9190611377565b60405180910390a3505050565b60006108878484610621565b90507fffffffffffffffffffffffffffffffffffffffffffffffffffffffffffffffff811461090157818110156108f3576040517f08c379a00000000000000000000000000000000000000000000000000000000081526004016108ea90611297565b60405180910390fd5b61090084848484036106b0565b5b50505050565b600073ffffffffffffffffffffffffffffffffffffffff168373ffffffffffffffffffffffffffffffffffffffff161415610977576040517f08c379a000000000000000000000000000000000000000000000000000000000815260040161096e906112f7565b60405180910390fd5b600073ffffffffffffffffffffffffffffffffffffffff168273ffffffffffffffffffffffffffffffffffffffff1614156109e7576040517f08c379a00000000000000000000000000000000000000000000000000000000081526004016109de90611237565b60405180910390fd5b6109f2838383610ebf565b60008060008573ffffffffffffffffffffffffffffffffffffffff1673ffffffffffffffffffffffffffffffffffffffff16815260200190815260200160002054905081811015610a78576040517f08c379a0000000000000000000000000000000000000000000000000000000008152600401610a6f906112b7565b60405180910390fd5b8181036000808673ffffffffffffffffffffffffffffffffffffffff1673ffffffffffffffffffffffffffffffffffffffff16815260200190815260200160002081905550816000808573ffffffffffffffffffffffffffffffffffffffff1673ffffffffffffffffffffffffffffffffffffffff1681526020019081526020016000206000828254610b0b91906113c9565b925050819055508273ffffffffffffffffffffffffffffffffffffffff168473ffffffffffffffffffffffffffffffffffffffff167fddf252ad1be2c89b69c2b068fc378daa952ba7f163c4a11628f55a4df523b3ef84604051610b6f9190611377565b60405180910390a3610b82848484610ec4565b50505050565b600073ffffffffffffffffffffffffffffffffffffffff168273ffffffffffffffffffffffffffffffffffffffff161415610bf8576040517f08c379a0000000000000000000000000000000000000000000000000000000008152600401610bef906112d7565b60405180910390fd5b610c0482600083610ebf565b60008060008473ffffffffffffffffffffffffffffffffffffffff1673ffffffffffffffffffffffffffffffffffffffff16815260200190815260200160002054905081811015610c8a576040517f08c379a0000000000000000000000000000000000000000000000000000000008152600401610c8190611257565b60405180910390fd5b8181036000808573ffffffffffffffffffffffffffffffffffffffff1673ffffffffffffffffffffffffffffffffffffffff168152602001908152602001600020819055508160026000828254610ce1919061141f565b92505081905550600073ffffffffffffffffffffffffffffffffffffffff168373ffffffffffffffffffffffffffffffffffffffff167fddf252ad1be2c89b69c2b068fc378daa952ba7f163c4a11628f55a4df523b3ef84604051610d469190611377565b60405180910390a3610d5a83600084610ec4565b505050565b600073ffffffffffffffffffffffffffffffffffffffff168273ffffffffffffffffffffffffffffffffffffffff161415610dcf576040517f08c379a0000000000000000000000000000000000000000000000000000000008152600401610dc690611357565b60405180910390fd5b610ddb60008383610ebf565b8060026000828254610ded91906113c9565b92505081905550806000808473ffffffffffffffffffffffffffffffffffffffff1673ffffffffffffffffffffffffffffffffffffffff1681526020019081526020016000206000828254610e4291906113c9565b925050819055508173ffffffffffffffffffffffffffffffffffffffff16600073ffffffffffffffffffffffffffffffffffffffff167fddf252ad1be2c89b69c2b068fc378daa952ba7f163c4a11628f55a4df523b3ef83604051610ea79190611377565b60405180910390a3610ebb60008383610ec4565b5050565b505050565b505050565b600081359050610ed881611846565b92915050565b600081359050610eed8161185d565b92915050565b600060208284031215610f0557600080fd5b6000610f1384828501610ec9565b91505092915050565b60008060408385031215610f2f57600080fd5b6000610f3d85828601610ec9565b9250506020610f4e85828601610ec9565b9150509250929050565b600080600060608486031215610f6d57600080fd5b6000610f7b86828701610ec9565b9350506020610f8c86828701610ec9565b9250506040610f9d86828701610ede565b9150509250925092565b60008060408385031215610fba57600080fd5b6000610fc885828601610ec9565b9250506020610fd985828601610ede565b9150509250929050565b600060208284031215610ff557600080fd5b600061100384828501610ede565b91505092915050565b61101581611453565b82525050565b61102481611465565b82525050565b6000611035826113ad565b61103f81856113b8565b935061104f8185602086016114a8565b6110588161156b565b840191505092915050565b60006110706023836113b8565b915061107b8261157c565b604082019050919050565b60006110936022836113b8565b915061109e826115cb565b604082019050919050565b60006110b66022836113b8565b91506110c18261161a565b604082019050919050565b60006110d9601d836113b8565b91506110e482611669565b602082019050919050565b60006110fc6026836113b8565b915061110782611692565b604082019050919050565b600061111f6021836113b8565b915061112a826116e1565b604082019050919050565b60006111426025836113b8565b915061114d82611730565b604082019050919050565b60006111656024836113b8565b91506111708261177f565b604082019050919050565b60006111886025836113b8565b9150611193826117ce565b604082019050919050565b60006111ab601f836113b8565b91506111b68261181d565b602082019050919050565b6111ca81611491565b82525050565b6111d98161149b565b82525050565b60006020820190506111f4600083018461100c565b92915050565b600060208201905061120f600083018461101b565b92915050565b6000602082019050818103600083015261122f818461102a565b905092915050565b6000602082019050818103600083015261125081611063565b9050919050565b6000602082019050818103600083015261127081611086565b9050919050565b60006020820190508181036000830152611290816110a9565b9050919050565b600060208201905081810360008301526112b0816110cc565b9050919050565b600060208201905081810360008301526112d0816110ef565b9050919050565b600060208201905081810360008301526112f081611112565b9050919050565b6000602082019050818103600083015261131081611135565b9050919050565b6000602082019050818103600083015261133081611158565b9050919050565b600060208201905081810360008301526113508161117b565b9050919050565b600060208201905081810360008301526113708161119e565b9050919050565b600060208201905061138c60008301846111c1565b92915050565b60006020820190506113a760008301846111d0565b92915050565b600081519050919050565b600082825260208201905092915050565b60006113d482611491565b91506113df83611491565b9250827fffffffffffffffffffffffffffffffffffffffffffffffffffffffffffffffff038211156114145761141361150d565b5b828201905092915050565b600061142a82611491565b915061143583611491565b9250828210156114485761144761150d565b5b828203905092915050565b600061145e82611471565b9050919050565b60008115159050919050565b600073ffffffffffffffffffffffffffffffffffffffff82169050919050565b6000819050919050565b600060ff82169050919050565b60005b838110156114c65780820151818401526020810190506114ab565b838111156114d5576000848401525b50505050565b600060028204905060018216806114f357607f821691505b602082108114156115075761150661153c565b5b50919050565b7f4e487b7100000000000000000000000000000000000000000000000000000000600052601160045260246000fd5b7f4e487b7100000000000000000000000000000000000000000000000000000000600052602260045260246000fd5b6000601f19601f8301169050919050565b7f45524332303a207472616e7366657220746f20746865207a65726f206164647260008201527f6573730000000000000000000000000000000000000000000000000000000000602082015250565b7f45524332303a206275726e20616d6f756e7420657863656564732062616c616e60008201527f6365000000000000000000000000000000000000000000000000000000000000602082015250565b7f45524332303a20617070726f766520746f20746865207a65726f20616464726560008201527f7373000000000000000000000000000000000000000000000000000000000000602082015250565b7f45524332303a20696e73756666696369656e7420616c6c6f77616e6365000000600082015250565b7f45524332303a207472616e7366657220616d6f756e742065786365656473206260008201527f616c616e63650000000000000000000000000000000000000000000000000000602082015250565b7f45524332303a206275726e2066726f6d20746865207a65726f2061646472657360008201527f7300000000000000000000000000000000000000000000000000000000000000602082015250565b7f45524332303a207472616e736665722066726f6d20746865207a65726f20616460008201527f6472657373000000000000000000000000000000000000000000000000000000602082015250565b7f45524332303a20617070726f76652066726f6d20746865207a65726f2061646460008201527f7265737300000000000000000000000000000000000000000000000000000000602082015250565b7f45524332303a2064656372656173656420616c6c6f77616e63652062656c6f7760008201527f207a65726f000000000000000000000000000000000000000000000000000000602082015250565b7f45524332303a206d696e7420746f20746865207a65726f206164647265737300600082015250565b61184f81611453565b811461185a57600080fd5b50565b61186681611491565b811461187157600080fd5b5056fea2646970667358221220950e26ec84e18997de8f0086d45d978ef51614a6404235e9b26ddd34805fa37764736f6c63430008040033",
  "linkReferences": {},
  "deployedLinkReferences": {}
}